{
  "contracts/Raffle.sol": {
    "Raffle": {
      "abi": [
        {
          "inputs": [
            {
              "internalType": "uint256",
              "name": "time",
              "type": "uint256"
            },
            {
              "internalType": "uint32",
              "name": "num_winners",
              "type": "uint32"
            },
            {
              "internalType": "address",
              "name": "_vrfCoordinator",
              "type": "address"
            },
            {
              "internalType": "bytes32",
              "name": "_keyHash",
              "type": "bytes32"
            },
            {
              "internalType": "uint64",
              "name": "_s_subscriptionId",
              "type": "uint64"
            },
            {
              "internalType": "uint256",
              "name": "_interval",
              "type": "uint256"
            }
          ],
          "stateMutability": "nonpayable",
          "type": "constructor"
        },
        {
          "inputs": [],
          "name": "NO_ENOUGHT_MONEY",
          "type": "error"
        },
        {
          "inputs": [],
          "name": "NO_OPEN_STATE",
          "type": "error"
        },
        {
          "inputs": [],
          "name": "NO_SENDIG_STATE",
          "type": "error"
        },
        {
          "inputs": [],
          "name": "NO_TIME",
          "type": "error"
        },
        {
          "inputs": [
            {
              "internalType": "address",
              "name": "have",
              "type": "address"
            },
            {
              "internalType": "address",
              "name": "want",
              "type": "address"
            }
          ],
          "name": "OnlyCoordinatorCanFulfill",
          "type": "error"
        },
        {
          "anonymous": false,
          "inputs": [
            {
              "indexed": false,
              "internalType": "address",
              "name": "buyer",
              "type": "address"
            }
          ],
          "name": "new_ticket",
          "type": "event"
        },
        {
          "anonymous": false,
          "inputs": [
            {
              "indexed": false,
              "internalType": "address",
              "name": "winner",
              "type": "address"
            }
          ],
          "name": "new_winner",
          "type": "event"
        },
        {
          "inputs": [
            {
              "internalType": "uint256",
              "name": "_number",
              "type": "uint256"
            }
          ],
          "name": "Buy_lottery",
          "outputs": [],
          "stateMutability": "payable",
          "type": "function"
        },
        {
          "inputs": [
            {
              "internalType": "bytes",
              "name": "",
              "type": "bytes"
            }
          ],
          "name": "checkUpkeep",
          "outputs": [
            {
              "internalType": "bool",
              "name": "upkeepNeeded",
              "type": "bool"
            },
            {
              "internalType": "bytes",
              "name": "",
              "type": "bytes"
            }
          ],
          "stateMutability": "nonpayable",
          "type": "function"
        },
        {
          "inputs": [],
          "name": "interval",
          "outputs": [
            {
              "internalType": "uint256",
              "name": "",
              "type": "uint256"
            }
          ],
          "stateMutability": "view",
          "type": "function"
        },
        {
          "inputs": [
            {
              "internalType": "bytes",
              "name": "",
              "type": "bytes"
            }
          ],
          "name": "performUpkeep",
          "outputs": [],
          "stateMutability": "nonpayable",
          "type": "function"
        },
        {
          "inputs": [
            {
              "internalType": "address",
              "name": "",
              "type": "address"
            }
          ],
          "name": "players",
          "outputs": [
            {
              "internalType": "uint256",
              "name": "",
              "type": "uint256"
            }
          ],
          "stateMutability": "view",
          "type": "function"
        },
        {
          "inputs": [
            {
              "internalType": "uint256",
              "name": "",
              "type": "uint256"
            }
          ],
          "name": "players_array",
          "outputs": [
            {
              "internalType": "address",
              "name": "address_person",
              "type": "address"
            },
            {
              "internalType": "uint256",
              "name": "number_of",
              "type": "uint256"
            }
          ],
          "stateMutability": "view",
          "type": "function"
        },
        {
          "inputs": [
            {
              "internalType": "uint256",
              "name": "requestId",
              "type": "uint256"
            },
            {
              "internalType": "uint256[]",
              "name": "randomWords",
              "type": "uint256[]"
            }
          ],
          "name": "rawFulfillRandomWords",
          "outputs": [],
          "stateMutability": "nonpayable",
          "type": "function"
        },
        {
          "inputs": [
            {
              "internalType": "uint256",
              "name": "",
              "type": "uint256"
            }
          ],
          "name": "s_randomWords",
          "outputs": [
            {
              "internalType": "uint256",
              "name": "",
              "type": "uint256"
            }
          ],
          "stateMutability": "view",
          "type": "function"
        },
        {
          "inputs": [],
          "name": "s_requestId",
          "outputs": [
            {
              "internalType": "uint256",
              "name": "",
              "type": "uint256"
            }
          ],
          "stateMutability": "view",
          "type": "function"
        },
        {
          "inputs": [],
          "name": "send_money",
          "outputs": [],
          "stateMutability": "nonpayable",
          "type": "function"
        },
        {
          "inputs": [],
          "name": "ticket_winner",
          "outputs": [
            {
              "internalType": "uint256",
              "name": "",
              "type": "uint256"
            }
          ],
          "stateMutability": "view",
          "type": "function"
        },
        {
          "inputs": [
            {
              "internalType": "uint256",
              "name": "",
              "type": "uint256"
            }
          ],
          "name": "winners",
          "outputs": [
            {
              "internalType": "address",
              "name": "",
              "type": "address"
            }
          ],
          "stateMutability": "view",
          "type": "function"
        }
      ],
      "devdoc": {
        "kind": "dev",
        "methods": {},
        "version": 1
      },
      "evm": {
        "bytecode": {
          "linkReferences": {},
          "object": "60a06040523480156200001157600080fd5b5060405162001c2438038062001c24833981810160405281019062000037919062000379565b600160009054906101000a900473ffffffffffffffffffffffffffffffffffffffff168073ffffffffffffffffffffffffffffffffffffffff1660808173ffffffffffffffffffffffffffffffffffffffff16815250505085600c819055506001600d60006101000a81548160ff02191690836001811115620000bf57620000be62000415565b5b021790555084600360006101000a81548163ffffffff021916908363ffffffff16021790555083600160006101000a81548173ffffffffffffffffffffffffffffffffffffffff021916908373ffffffffffffffffffffffffffffffffffffffff1602179055508260028190555033600660006101000a81548173ffffffffffffffffffffffffffffffffffffffff021916908373ffffffffffffffffffffffffffffffffffffffff16021790555081600060146101000a81548167ffffffffffffffff021916908367ffffffffffffffff160217905550600160009054906101000a900473ffffffffffffffffffffffffffffffffffffffff166000806101000a81548173ffffffffffffffffffffffffffffffffffffffff021916908373ffffffffffffffffffffffffffffffffffffffff160217905550426007819055508060088190555050505050505062000444565b600080fd5b6000819050919050565b6200022d8162000218565b81146200023957600080fd5b50565b6000815190506200024d8162000222565b92915050565b600063ffffffff82169050919050565b6200026e8162000253565b81146200027a57600080fd5b50565b6000815190506200028e8162000263565b92915050565b600073ffffffffffffffffffffffffffffffffffffffff82169050919050565b6000620002c18262000294565b9050919050565b620002d381620002b4565b8114620002df57600080fd5b50565b600081519050620002f381620002c8565b92915050565b6000819050919050565b6200030e81620002f9565b81146200031a57600080fd5b50565b6000815190506200032e8162000303565b92915050565b600067ffffffffffffffff82169050919050565b620003538162000334565b81146200035f57600080fd5b50565b600081519050620003738162000348565b92915050565b60008060008060008060c0878903121562000399576200039862000213565b5b6000620003a989828a016200023c565b9650506020620003bc89828a016200027d565b9550506040620003cf89828a01620002e2565b9450506060620003e289828a016200031d565b9350506080620003f589828a0162000362565b92505060a06200040889828a016200023c565b9150509295509295509295565b7f4e487b7100000000000000000000000000000000000000000000000000000000600052602160045260246000fd5b6080516117bd62000467600039600081816102e7015261033b01526117bd6000f3fe6080604052600436106100a75760003560e01c8063a2fb117511610064578063a2fb1175146101d0578063dcbd54161461020d578063e2eb41ff14610229578063e89e106a14610266578063f1e0bdf414610291578063f6eaffc8146102a8576100a7565b80631fe543e3146100ac5780632d668845146100d55780634585e33b146101005780636e04ff0d146101295780639474353914610167578063947a36fb146101a5575b600080fd5b3480156100b857600080fd5b506100d360048036038101906100ce9190610f39565b6102e5565b005b3480156100e157600080fd5b506100ea6103a5565b6040516100f79190610fa4565b60405180910390f35b34801561010c57600080fd5b506101276004803603810190610122919061101a565b6103ab565b005b34801561013557600080fd5b50610150600480360381019061014b919061111c565b6104eb565b60405161015e929190611208565b60405180910390f35b34801561017357600080fd5b5061018e60048036038101906101899190611238565b61056b565b60405161019c9291906112a6565b60405180910390f35b3480156101b157600080fd5b506101ba6105bf565b6040516101c79190610fa4565b60405180910390f35b3480156101dc57600080fd5b506101f760048036038101906101f29190611238565b6105c5565b60405161020491906112cf565b60405180910390f35b61022760048036038101906102229190611238565b610604565b005b34801561023557600080fd5b50610250600480360381019061024b9190611316565b6107d8565b60405161025d9190610fa4565b60405180910390f35b34801561027257600080fd5b5061027b6107f0565b6040516102889190610fa4565b60405180910390f35b34801561029d57600080fd5b506102a66107f6565b005b3480156102b457600080fd5b506102cf60048036038101906102ca9190611238565b610c06565b6040516102dc9190610fa4565b60405180910390f35b7f000000000000000000000000000000000000000000000000000000000000000073ffffffffffffffffffffffffffffffffffffffff163373ffffffffffffffffffffffffffffffffffffffff161461039757337f00000000000000000000000000000000000000000000000000000000000000006040517f1cf993f400000000000000000000000000000000000000000000000000000000815260040161038e929190611343565b60405180910390fd5b6103a18282610c2a565b5050565b600e5481565b60006103c5604051806020016040528060008152506104eb565b509050806103ff576040517fdbd2220a00000000000000000000000000000000000000000000000000000000815260040160405180910390fd5b60008054906101000a900473ffffffffffffffffffffffffffffffffffffffff1673ffffffffffffffffffffffffffffffffffffffff16635d3b1d30600254600060149054906101000a900467ffffffffffffffff166003620186a0600360009054906101000a900463ffffffff166040518663ffffffff1660e01b815260040161048e9594939291906113e4565b602060405180830381600087803b1580156104a857600080fd5b505af11580156104bc573d6000803e3d6000fd5b505050506040513d601f19601f820116820180604052508101906104e0919061144c565b600581905550505050565b60006060600060018081111561050457610503611479565b5b600d60009054906101000a900460ff16600181111561052657610525611479565b5b14905060006008546007544261053c91906114d7565b1190506000670de0b6b3a7640000471190508280156105585750815b80156105615750805b9450505050915091565b600a818154811061057b57600080fd5b90600052602060002090600202016000915090508060000160009054906101000a900473ffffffffffffffffffffffffffffffffffffffff16908060010154905082565b60085481565b600b81815481106105d557600080fd5b906000526020600020016000915054906101000a900473ffffffffffffffffffffffffffffffffffffffff1681565b662386f26fc10000341015610645576040517f6a6df4c900000000000000000000000000000000000000000000000000000000815260040160405180910390fd5b600d60009054906101000a900460ff16600181111561066757610666611479565b5b60018081111561067a57610679611479565b5b146106b1576040517fc9bcc82e00000000000000000000000000000000000000000000000000000000815260040160405180910390fd5b600a60405180604001604052803373ffffffffffffffffffffffffffffffffffffffff16815260200183815250908060018154018082558091505060019003906000526020600020906002020160009091909190915060008201518160000160006101000a81548173ffffffffffffffffffffffffffffffffffffffff021916908373ffffffffffffffffffffffffffffffffffffffff16021790555060208201518160010155505080600960003373ffffffffffffffffffffffffffffffffffffffff1673ffffffffffffffffffffffffffffffffffffffff168152602001908152602001600020819055507f87bbcb76ca2a0acf0732f7cddafc17b54b6efda4a5d6682f1f677c9bfb8d990f336040516107cd91906112cf565b60405180910390a150565b60096020528060005260406000206000915090505481565b60055481565b6000600181111561080a57610809611479565b5b600d60009054906101000a900460ff16600181111561082c5761082b611479565b5b14610863576040517fb4eb319700000000000000000000000000000000000000000000000000000000815260040160405180910390fd5b6000805b600a805490508110156109c257600a81815481106108885761088761150b565b5b906000526020600020906002020160010154600e54141561095b576001826108b0919061153a565b9150600b600a82815481106108c8576108c761150b565b5b906000526020600020906002020160000160009054906101000a900473ffffffffffffffffffffffffffffffffffffffff169080600181540180825580915050600190039060005260206000200160009091909190916101000a81548173ffffffffffffffffffffffffffffffffffffffff021916908373ffffffffffffffffffffffffffffffffffffffff1602179055505b600a818154811061096f5761096e61150b565b5b9060005260206000209060020201600080820160006101000a81549073ffffffffffffffffffffffffffffffffffffffff02191690556001820160009055505080806109ba90611590565b915050610867565b5060005b600b80549050811015610b70576000670de0b6b3a7640000600b8054905060016109f09190611608565b6109fa9190611639565b90506000600b8381548110610a1257610a1161150b565b5b9060005260206000200160009054906101000a900473ffffffffffffffffffffffffffffffffffffffff1673ffffffffffffffffffffffffffffffffffffffff1682604051610a60906116c4565b60006040518083038185875af1925050503d8060008114610a9d576040519150601f19603f3d011682016040523d82523d6000602084013e610aa2565b606091505b5050905080610ae6576040517f08c379a0000000000000000000000000000000000000000000000000000000008152600401610add90611736565b60405180910390fd5b7f2fb5676af721f279a52b33d9ae31f5cc54234b3d4b5495e3d34e64acffb326cb600b8481548110610b1b57610b1a61150b565b5b9060005260206000200160009054906101000a900473ffffffffffffffffffffffffffffffffffffffff16604051610b5391906112cf565b60405180910390a150508080610b6890611590565b9150506109c6565b5042600781905550600067ffffffffffffffff811115610b9357610b92610df6565b5b604051908082528060200260200182016040528015610bc15781602001602082028036833780820191505090505b50600b9080519060200190610bd7929190610ca2565b506001600d60006101000a81548160ff02191690836001811115610bfe57610bfd611479565b5b021790555050565b60048181548110610c1657600080fd5b906000526020600020016000915090505481565b8060049080519060200190610c40929190610d2c565b5060636004600081548110610c5857610c5761150b565b5b9060005260206000200154610c6d9190611756565b600e819055506000600d60006101000a81548160ff02191690836001811115610c9957610c98611479565b5b02179055505050565b828054828255906000526020600020908101928215610d1b579160200282015b82811115610d1a5782518260006101000a81548173ffffffffffffffffffffffffffffffffffffffff021916908373ffffffffffffffffffffffffffffffffffffffff16021790555091602001919060010190610cc2565b5b509050610d289190610d79565b5090565b828054828255906000526020600020908101928215610d68579160200282015b82811115610d67578251825591602001919060010190610d4c565b5b509050610d759190610d79565b5090565b5b80821115610d92576000816000905550600101610d7a565b5090565b6000604051905090565b600080fd5b600080fd5b6000819050919050565b610dbd81610daa565b8114610dc857600080fd5b50565b600081359050610dda81610db4565b92915050565b600080fd5b6000601f19601f8301169050919050565b7f4e487b7100000000000000000000000000000000000000000000000000000000600052604160045260246000fd5b610e2e82610de5565b810181811067ffffffffffffffff82111715610e4d57610e4c610df6565b5b80604052505050565b6000610e60610d96565b9050610e6c8282610e25565b919050565b600067ffffffffffffffff821115610e8c57610e8b610df6565b5b602082029050602081019050919050565b600080fd5b6000610eb5610eb084610e71565b610e56565b90508083825260208201905060208402830185811115610ed857610ed7610e9d565b5b835b81811015610f015780610eed8882610dcb565b845260208401935050602081019050610eda565b5050509392505050565b600082601f830112610f2057610f1f610de0565b5b8135610f30848260208601610ea2565b91505092915050565b60008060408385031215610f5057610f4f610da0565b5b6000610f5e85828601610dcb565b925050602083013567ffffffffffffffff811115610f7f57610f7e610da5565b5b610f8b85828601610f0b565b9150509250929050565b610f9e81610daa565b82525050565b6000602082019050610fb96000830184610f95565b92915050565b600080fd5b60008083601f840112610fda57610fd9610de0565b5b8235905067ffffffffffffffff811115610ff757610ff6610fbf565b5b60208301915083600182028301111561101357611012610e9d565b5b9250929050565b6000806020838503121561103157611030610da0565b5b600083013567ffffffffffffffff81111561104f5761104e610da5565b5b61105b85828601610fc4565b92509250509250929050565b600080fd5b600067ffffffffffffffff82111561108757611086610df6565b5b61109082610de5565b9050602081019050919050565b82818337600083830152505050565b60006110bf6110ba8461106c565b610e56565b9050828152602081018484840111156110db576110da611067565b5b6110e684828561109d565b509392505050565b600082601f83011261110357611102610de0565b5b81356111138482602086016110ac565b91505092915050565b60006020828403121561113257611131610da0565b5b600082013567ffffffffffffffff8111156111505761114f610da5565b5b61115c848285016110ee565b91505092915050565b60008115159050919050565b61117a81611165565b82525050565b600081519050919050565b600082825260208201905092915050565b60005b838110156111ba57808201518184015260208101905061119f565b838111156111c9576000848401525b50505050565b60006111da82611180565b6111e4818561118b565b93506111f481856020860161119c565b6111fd81610de5565b840191505092915050565b600060408201905061121d6000830185611171565b818103602083015261122f81846111cf565b90509392505050565b60006020828403121561124e5761124d610da0565b5b600061125c84828501610dcb565b91505092915050565b600073ffffffffffffffffffffffffffffffffffffffff82169050919050565b600061129082611265565b9050919050565b6112a081611285565b82525050565b60006040820190506112bb6000830185611297565b6112c86020830184610f95565b9392505050565b60006020820190506112e46000830184611297565b92915050565b6112f381611285565b81146112fe57600080fd5b50565b600081359050611310816112ea565b92915050565b60006020828403121561132c5761132b610da0565b5b600061133a84828501611301565b91505092915050565b60006040820190506113586000830185611297565b6113656020830184611297565b9392505050565b6000819050919050565b61137f8161136c565b82525050565b600067ffffffffffffffff82169050919050565b6113a281611385565b82525050565b600061ffff82169050919050565b6113bf816113a8565b82525050565b600063ffffffff82169050919050565b6113de816113c5565b82525050565b600060a0820190506113f96000830188611376565b6114066020830187611399565b61141360408301866113b6565b61142060608301856113d5565b61142d60808301846113d5565b9695505050505050565b60008151905061144681610db4565b92915050565b60006020828403121561146257611461610da0565b5b600061147084828501611437565b91505092915050565b7f4e487b7100000000000000000000000000000000000000000000000000000000600052602160045260246000fd5b7f4e487b7100000000000000000000000000000000000000000000000000000000600052601160045260246000fd5b60006114e282610daa565b91506114ed83610daa565b925082821015611500576114ff6114a8565b5b828203905092915050565b7f4e487b7100000000000000000000000000000000000000000000000000000000600052603260045260246000fd5b600061154582610daa565b915061155083610daa565b9250827fffffffffffffffffffffffffffffffffffffffffffffffffffffffffffffffff03821115611585576115846114a8565b5b828201905092915050565b600061159b82610daa565b91507fffffffffffffffffffffffffffffffffffffffffffffffffffffffffffffffff8214156115ce576115cd6114a8565b5b600182019050919050565b7f4e487b7100000000000000000000000000000000000000000000000000000000600052601260045260246000fd5b600061161382610daa565b915061161e83610daa565b92508261162e5761162d6115d9565b5b828204905092915050565b600061164482610daa565b915061164f83610daa565b9250817fffffffffffffffffffffffffffffffffffffffffffffffffffffffffffffffff0483118215151615611688576116876114a8565b5b828202905092915050565b600081905092915050565b50565b60006116ae600083611693565b91506116b98261169e565b600082019050919050565b60006116cf826116a1565b9150819050919050565b600082825260208201905092915050565b7f6574686572206e6f742073656e64000000000000000000000000000000000000600082015250565b6000611720600e836116d9565b915061172b826116ea565b602082019050919050565b6000602082019050818103600083015261174f81611713565b9050919050565b600061176182610daa565b915061176c83610daa565b92508261177c5761177b6115d9565b5b82820690509291505056fea264697066735822122004e03c45e8c379258e7080b4785754d01c2e83fdb6fa5ae55fc2d5a8b04a044664736f6c63430008090033",
          "opcodes": "PUSH1 0xA0 PUSH1 0x40 MSTORE CALLVALUE DUP1 ISZERO PUSH3 0x11 JUMPI PUSH1 0x0 DUP1 REVERT JUMPDEST POP PUSH1 0x40 MLOAD PUSH3 0x1C24 CODESIZE SUB DUP1 PUSH3 0x1C24 DUP4 CODECOPY DUP2 DUP2 ADD PUSH1 0x40 MSTORE DUP2 ADD SWAP1 PUSH3 0x37 SWAP2 SWAP1 PUSH3 0x379 JUMP JUMPDEST PUSH1 0x1 PUSH1 0x0 SWAP1 SLOAD SWAP1 PUSH2 0x100 EXP SWAP1 DIV PUSH20 0xFFFFFFFFFFFFFFFFFFFFFFFFFFFFFFFFFFFFFFFF AND DUP1 PUSH20 0xFFFFFFFFFFFFFFFFFFFFFFFFFFFFFFFFFFFFFFFF AND PUSH1 0x80 DUP2 PUSH20 0xFFFFFFFFFFFFFFFFFFFFFFFFFFFFFFFFFFFFFFFF AND DUP2 MSTORE POP POP POP DUP6 PUSH1 0xC DUP2 SWAP1 SSTORE POP PUSH1 0x1 PUSH1 0xD PUSH1 0x0 PUSH2 0x100 EXP DUP2 SLOAD DUP2 PUSH1 0xFF MUL NOT AND SWAP1 DUP4 PUSH1 0x1 DUP2 GT ISZERO PUSH3 0xBF JUMPI PUSH3 0xBE PUSH3 0x415 JUMP JUMPDEST JUMPDEST MUL OR SWAP1 SSTORE POP DUP5 PUSH1 0x3 PUSH1 0x0 PUSH2 0x100 EXP DUP2 SLOAD DUP2 PUSH4 0xFFFFFFFF MUL NOT AND SWAP1 DUP4 PUSH4 0xFFFFFFFF AND MUL OR SWAP1 SSTORE POP DUP4 PUSH1 0x1 PUSH1 0x0 PUSH2 0x100 EXP DUP2 SLOAD DUP2 PUSH20 0xFFFFFFFFFFFFFFFFFFFFFFFFFFFFFFFFFFFFFFFF MUL NOT AND SWAP1 DUP4 PUSH20 0xFFFFFFFFFFFFFFFFFFFFFFFFFFFFFFFFFFFFFFFF AND MUL OR SWAP1 SSTORE POP DUP3 PUSH1 0x2 DUP2 SWAP1 SSTORE POP CALLER PUSH1 0x6 PUSH1 0x0 PUSH2 0x100 EXP DUP2 SLOAD DUP2 PUSH20 0xFFFFFFFFFFFFFFFFFFFFFFFFFFFFFFFFFFFFFFFF MUL NOT AND SWAP1 DUP4 PUSH20 0xFFFFFFFFFFFFFFFFFFFFFFFFFFFFFFFFFFFFFFFF AND MUL OR SWAP1 SSTORE POP DUP2 PUSH1 0x0 PUSH1 0x14 PUSH2 0x100 EXP DUP2 SLOAD DUP2 PUSH8 0xFFFFFFFFFFFFFFFF MUL NOT AND SWAP1 DUP4 PUSH8 0xFFFFFFFFFFFFFFFF AND MUL OR SWAP1 SSTORE POP PUSH1 0x1 PUSH1 0x0 SWAP1 SLOAD SWAP1 PUSH2 0x100 EXP SWAP1 DIV PUSH20 0xFFFFFFFFFFFFFFFFFFFFFFFFFFFFFFFFFFFFFFFF AND PUSH1 0x0 DUP1 PUSH2 0x100 EXP DUP2 SLOAD DUP2 PUSH20 0xFFFFFFFFFFFFFFFFFFFFFFFFFFFFFFFFFFFFFFFF MUL NOT AND SWAP1 DUP4 PUSH20 0xFFFFFFFFFFFFFFFFFFFFFFFFFFFFFFFFFFFFFFFF AND MUL OR SWAP1 SSTORE POP TIMESTAMP PUSH1 0x7 DUP2 SWAP1 SSTORE POP DUP1 PUSH1 0x8 DUP2 SWAP1 SSTORE POP POP POP POP POP POP POP PUSH3 0x444 JUMP JUMPDEST PUSH1 0x0 DUP1 REVERT JUMPDEST PUSH1 0x0 DUP2 SWAP1 POP SWAP2 SWAP1 POP JUMP JUMPDEST PUSH3 0x22D DUP2 PUSH3 0x218 JUMP JUMPDEST DUP2 EQ PUSH3 0x239 JUMPI PUSH1 0x0 DUP1 REVERT JUMPDEST POP JUMP JUMPDEST PUSH1 0x0 DUP2 MLOAD SWAP1 POP PUSH3 0x24D DUP2 PUSH3 0x222 JUMP JUMPDEST SWAP3 SWAP2 POP POP JUMP JUMPDEST PUSH1 0x0 PUSH4 0xFFFFFFFF DUP3 AND SWAP1 POP SWAP2 SWAP1 POP JUMP JUMPDEST PUSH3 0x26E DUP2 PUSH3 0x253 JUMP JUMPDEST DUP2 EQ PUSH3 0x27A JUMPI PUSH1 0x0 DUP1 REVERT JUMPDEST POP JUMP JUMPDEST PUSH1 0x0 DUP2 MLOAD SWAP1 POP PUSH3 0x28E DUP2 PUSH3 0x263 JUMP JUMPDEST SWAP3 SWAP2 POP POP JUMP JUMPDEST PUSH1 0x0 PUSH20 0xFFFFFFFFFFFFFFFFFFFFFFFFFFFFFFFFFFFFFFFF DUP3 AND SWAP1 POP SWAP2 SWAP1 POP JUMP JUMPDEST PUSH1 0x0 PUSH3 0x2C1 DUP3 PUSH3 0x294 JUMP JUMPDEST SWAP1 POP SWAP2 SWAP1 POP JUMP JUMPDEST PUSH3 0x2D3 DUP2 PUSH3 0x2B4 JUMP JUMPDEST DUP2 EQ PUSH3 0x2DF JUMPI PUSH1 0x0 DUP1 REVERT JUMPDEST POP JUMP JUMPDEST PUSH1 0x0 DUP2 MLOAD SWAP1 POP PUSH3 0x2F3 DUP2 PUSH3 0x2C8 JUMP JUMPDEST SWAP3 SWAP2 POP POP JUMP JUMPDEST PUSH1 0x0 DUP2 SWAP1 POP SWAP2 SWAP1 POP JUMP JUMPDEST PUSH3 0x30E DUP2 PUSH3 0x2F9 JUMP JUMPDEST DUP2 EQ PUSH3 0x31A JUMPI PUSH1 0x0 DUP1 REVERT JUMPDEST POP JUMP JUMPDEST PUSH1 0x0 DUP2 MLOAD SWAP1 POP PUSH3 0x32E DUP2 PUSH3 0x303 JUMP JUMPDEST SWAP3 SWAP2 POP POP JUMP JUMPDEST PUSH1 0x0 PUSH8 0xFFFFFFFFFFFFFFFF DUP3 AND SWAP1 POP SWAP2 SWAP1 POP JUMP JUMPDEST PUSH3 0x353 DUP2 PUSH3 0x334 JUMP JUMPDEST DUP2 EQ PUSH3 0x35F JUMPI PUSH1 0x0 DUP1 REVERT JUMPDEST POP JUMP JUMPDEST PUSH1 0x0 DUP2 MLOAD SWAP1 POP PUSH3 0x373 DUP2 PUSH3 0x348 JUMP JUMPDEST SWAP3 SWAP2 POP POP JUMP JUMPDEST PUSH1 0x0 DUP1 PUSH1 0x0 DUP1 PUSH1 0x0 DUP1 PUSH1 0xC0 DUP8 DUP10 SUB SLT ISZERO PUSH3 0x399 JUMPI PUSH3 0x398 PUSH3 0x213 JUMP JUMPDEST JUMPDEST PUSH1 0x0 PUSH3 0x3A9 DUP10 DUP3 DUP11 ADD PUSH3 0x23C JUMP JUMPDEST SWAP7 POP POP PUSH1 0x20 PUSH3 0x3BC DUP10 DUP3 DUP11 ADD PUSH3 0x27D JUMP JUMPDEST SWAP6 POP POP PUSH1 0x40 PUSH3 0x3CF DUP10 DUP3 DUP11 ADD PUSH3 0x2E2 JUMP JUMPDEST SWAP5 POP POP PUSH1 0x60 PUSH3 0x3E2 DUP10 DUP3 DUP11 ADD PUSH3 0x31D JUMP JUMPDEST SWAP4 POP POP PUSH1 0x80 PUSH3 0x3F5 DUP10 DUP3 DUP11 ADD PUSH3 0x362 JUMP JUMPDEST SWAP3 POP POP PUSH1 0xA0 PUSH3 0x408 DUP10 DUP3 DUP11 ADD PUSH3 0x23C JUMP JUMPDEST SWAP2 POP POP SWAP3 SWAP6 POP SWAP3 SWAP6 POP SWAP3 SWAP6 JUMP JUMPDEST PUSH32 0x4E487B7100000000000000000000000000000000000000000000000000000000 PUSH1 0x0 MSTORE PUSH1 0x21 PUSH1 0x4 MSTORE PUSH1 0x24 PUSH1 0x0 REVERT JUMPDEST PUSH1 0x80 MLOAD PUSH2 0x17BD PUSH3 0x467 PUSH1 0x0 CODECOPY PUSH1 0x0 DUP2 DUP2 PUSH2 0x2E7 ADD MSTORE PUSH2 0x33B ADD MSTORE PUSH2 0x17BD PUSH1 0x0 RETURN INVALID PUSH1 0x80 PUSH1 0x40 MSTORE PUSH1 0x4 CALLDATASIZE LT PUSH2 0xA7 JUMPI PUSH1 0x0 CALLDATALOAD PUSH1 0xE0 SHR DUP1 PUSH4 0xA2FB1175 GT PUSH2 0x64 JUMPI DUP1 PUSH4 0xA2FB1175 EQ PUSH2 0x1D0 JUMPI DUP1 PUSH4 0xDCBD5416 EQ PUSH2 0x20D JUMPI DUP1 PUSH4 0xE2EB41FF EQ PUSH2 0x229 JUMPI DUP1 PUSH4 0xE89E106A EQ PUSH2 0x266 JUMPI DUP1 PUSH4 0xF1E0BDF4 EQ PUSH2 0x291 JUMPI DUP1 PUSH4 0xF6EAFFC8 EQ PUSH2 0x2A8 JUMPI PUSH2 0xA7 JUMP JUMPDEST DUP1 PUSH4 0x1FE543E3 EQ PUSH2 0xAC JUMPI DUP1 PUSH4 0x2D668845 EQ PUSH2 0xD5 JUMPI DUP1 PUSH4 0x4585E33B EQ PUSH2 0x100 JUMPI DUP1 PUSH4 0x6E04FF0D EQ PUSH2 0x129 JUMPI DUP1 PUSH4 0x94743539 EQ PUSH2 0x167 JUMPI DUP1 PUSH4 0x947A36FB EQ PUSH2 0x1A5 JUMPI JUMPDEST PUSH1 0x0 DUP1 REVERT JUMPDEST CALLVALUE DUP1 ISZERO PUSH2 0xB8 JUMPI PUSH1 0x0 DUP1 REVERT JUMPDEST POP PUSH2 0xD3 PUSH1 0x4 DUP1 CALLDATASIZE SUB DUP2 ADD SWAP1 PUSH2 0xCE SWAP2 SWAP1 PUSH2 0xF39 JUMP JUMPDEST PUSH2 0x2E5 JUMP JUMPDEST STOP JUMPDEST CALLVALUE DUP1 ISZERO PUSH2 0xE1 JUMPI PUSH1 0x0 DUP1 REVERT JUMPDEST POP PUSH2 0xEA PUSH2 0x3A5 JUMP JUMPDEST PUSH1 0x40 MLOAD PUSH2 0xF7 SWAP2 SWAP1 PUSH2 0xFA4 JUMP JUMPDEST PUSH1 0x40 MLOAD DUP1 SWAP2 SUB SWAP1 RETURN JUMPDEST CALLVALUE DUP1 ISZERO PUSH2 0x10C JUMPI PUSH1 0x0 DUP1 REVERT JUMPDEST POP PUSH2 0x127 PUSH1 0x4 DUP1 CALLDATASIZE SUB DUP2 ADD SWAP1 PUSH2 0x122 SWAP2 SWAP1 PUSH2 0x101A JUMP JUMPDEST PUSH2 0x3AB JUMP JUMPDEST STOP JUMPDEST CALLVALUE DUP1 ISZERO PUSH2 0x135 JUMPI PUSH1 0x0 DUP1 REVERT JUMPDEST POP PUSH2 0x150 PUSH1 0x4 DUP1 CALLDATASIZE SUB DUP2 ADD SWAP1 PUSH2 0x14B SWAP2 SWAP1 PUSH2 0x111C JUMP JUMPDEST PUSH2 0x4EB JUMP JUMPDEST PUSH1 0x40 MLOAD PUSH2 0x15E SWAP3 SWAP2 SWAP1 PUSH2 0x1208 JUMP JUMPDEST PUSH1 0x40 MLOAD DUP1 SWAP2 SUB SWAP1 RETURN JUMPDEST CALLVALUE DUP1 ISZERO PUSH2 0x173 JUMPI PUSH1 0x0 DUP1 REVERT JUMPDEST POP PUSH2 0x18E PUSH1 0x4 DUP1 CALLDATASIZE SUB DUP2 ADD SWAP1 PUSH2 0x189 SWAP2 SWAP1 PUSH2 0x1238 JUMP JUMPDEST PUSH2 0x56B JUMP JUMPDEST PUSH1 0x40 MLOAD PUSH2 0x19C SWAP3 SWAP2 SWAP1 PUSH2 0x12A6 JUMP JUMPDEST PUSH1 0x40 MLOAD DUP1 SWAP2 SUB SWAP1 RETURN JUMPDEST CALLVALUE DUP1 ISZERO PUSH2 0x1B1 JUMPI PUSH1 0x0 DUP1 REVERT JUMPDEST POP PUSH2 0x1BA PUSH2 0x5BF JUMP JUMPDEST PUSH1 0x40 MLOAD PUSH2 0x1C7 SWAP2 SWAP1 PUSH2 0xFA4 JUMP JUMPDEST PUSH1 0x40 MLOAD DUP1 SWAP2 SUB SWAP1 RETURN JUMPDEST CALLVALUE DUP1 ISZERO PUSH2 0x1DC JUMPI PUSH1 0x0 DUP1 REVERT JUMPDEST POP PUSH2 0x1F7 PUSH1 0x4 DUP1 CALLDATASIZE SUB DUP2 ADD SWAP1 PUSH2 0x1F2 SWAP2 SWAP1 PUSH2 0x1238 JUMP JUMPDEST PUSH2 0x5C5 JUMP JUMPDEST PUSH1 0x40 MLOAD PUSH2 0x204 SWAP2 SWAP1 PUSH2 0x12CF JUMP JUMPDEST PUSH1 0x40 MLOAD DUP1 SWAP2 SUB SWAP1 RETURN JUMPDEST PUSH2 0x227 PUSH1 0x4 DUP1 CALLDATASIZE SUB DUP2 ADD SWAP1 PUSH2 0x222 SWAP2 SWAP1 PUSH2 0x1238 JUMP JUMPDEST PUSH2 0x604 JUMP JUMPDEST STOP JUMPDEST CALLVALUE DUP1 ISZERO PUSH2 0x235 JUMPI PUSH1 0x0 DUP1 REVERT JUMPDEST POP PUSH2 0x250 PUSH1 0x4 DUP1 CALLDATASIZE SUB DUP2 ADD SWAP1 PUSH2 0x24B SWAP2 SWAP1 PUSH2 0x1316 JUMP JUMPDEST PUSH2 0x7D8 JUMP JUMPDEST PUSH1 0x40 MLOAD PUSH2 0x25D SWAP2 SWAP1 PUSH2 0xFA4 JUMP JUMPDEST PUSH1 0x40 MLOAD DUP1 SWAP2 SUB SWAP1 RETURN JUMPDEST CALLVALUE DUP1 ISZERO PUSH2 0x272 JUMPI PUSH1 0x0 DUP1 REVERT JUMPDEST POP PUSH2 0x27B PUSH2 0x7F0 JUMP JUMPDEST PUSH1 0x40 MLOAD PUSH2 0x288 SWAP2 SWAP1 PUSH2 0xFA4 JUMP JUMPDEST PUSH1 0x40 MLOAD DUP1 SWAP2 SUB SWAP1 RETURN JUMPDEST CALLVALUE DUP1 ISZERO PUSH2 0x29D JUMPI PUSH1 0x0 DUP1 REVERT JUMPDEST POP PUSH2 0x2A6 PUSH2 0x7F6 JUMP JUMPDEST STOP JUMPDEST CALLVALUE DUP1 ISZERO PUSH2 0x2B4 JUMPI PUSH1 0x0 DUP1 REVERT JUMPDEST POP PUSH2 0x2CF PUSH1 0x4 DUP1 CALLDATASIZE SUB DUP2 ADD SWAP1 PUSH2 0x2CA SWAP2 SWAP1 PUSH2 0x1238 JUMP JUMPDEST PUSH2 0xC06 JUMP JUMPDEST PUSH1 0x40 MLOAD PUSH2 0x2DC SWAP2 SWAP1 PUSH2 0xFA4 JUMP JUMPDEST PUSH1 0x40 MLOAD DUP1 SWAP2 SUB SWAP1 RETURN JUMPDEST PUSH32 0x0 PUSH20 0xFFFFFFFFFFFFFFFFFFFFFFFFFFFFFFFFFFFFFFFF AND CALLER PUSH20 0xFFFFFFFFFFFFFFFFFFFFFFFFFFFFFFFFFFFFFFFF AND EQ PUSH2 0x397 JUMPI CALLER PUSH32 0x0 PUSH1 0x40 MLOAD PUSH32 0x1CF993F400000000000000000000000000000000000000000000000000000000 DUP2 MSTORE PUSH1 0x4 ADD PUSH2 0x38E SWAP3 SWAP2 SWAP1 PUSH2 0x1343 JUMP JUMPDEST PUSH1 0x40 MLOAD DUP1 SWAP2 SUB SWAP1 REVERT JUMPDEST PUSH2 0x3A1 DUP3 DUP3 PUSH2 0xC2A JUMP JUMPDEST POP POP JUMP JUMPDEST PUSH1 0xE SLOAD DUP2 JUMP JUMPDEST PUSH1 0x0 PUSH2 0x3C5 PUSH1 0x40 MLOAD DUP1 PUSH1 0x20 ADD PUSH1 0x40 MSTORE DUP1 PUSH1 0x0 DUP2 MSTORE POP PUSH2 0x4EB JUMP JUMPDEST POP SWAP1 POP DUP1 PUSH2 0x3FF JUMPI PUSH1 0x40 MLOAD PUSH32 0xDBD2220A00000000000000000000000000000000000000000000000000000000 DUP2 MSTORE PUSH1 0x4 ADD PUSH1 0x40 MLOAD DUP1 SWAP2 SUB SWAP1 REVERT JUMPDEST PUSH1 0x0 DUP1 SLOAD SWAP1 PUSH2 0x100 EXP SWAP1 DIV PUSH20 0xFFFFFFFFFFFFFFFFFFFFFFFFFFFFFFFFFFFFFFFF AND PUSH20 0xFFFFFFFFFFFFFFFFFFFFFFFFFFFFFFFFFFFFFFFF AND PUSH4 0x5D3B1D30 PUSH1 0x2 SLOAD PUSH1 0x0 PUSH1 0x14 SWAP1 SLOAD SWAP1 PUSH2 0x100 EXP SWAP1 DIV PUSH8 0xFFFFFFFFFFFFFFFF AND PUSH1 0x3 PUSH3 0x186A0 PUSH1 0x3 PUSH1 0x0 SWAP1 SLOAD SWAP1 PUSH2 0x100 EXP SWAP1 DIV PUSH4 0xFFFFFFFF AND PUSH1 0x40 MLOAD DUP7 PUSH4 0xFFFFFFFF AND PUSH1 0xE0 SHL DUP2 MSTORE PUSH1 0x4 ADD PUSH2 0x48E SWAP6 SWAP5 SWAP4 SWAP3 SWAP2 SWAP1 PUSH2 0x13E4 JUMP JUMPDEST PUSH1 0x20 PUSH1 0x40 MLOAD DUP1 DUP4 SUB DUP2 PUSH1 0x0 DUP8 DUP1 EXTCODESIZE ISZERO DUP1 ISZERO PUSH2 0x4A8 JUMPI PUSH1 0x0 DUP1 REVERT JUMPDEST POP GAS CALL ISZERO DUP1 ISZERO PUSH2 0x4BC JUMPI RETURNDATASIZE PUSH1 0x0 DUP1 RETURNDATACOPY RETURNDATASIZE PUSH1 0x0 REVERT JUMPDEST POP POP POP POP PUSH1 0x40 MLOAD RETURNDATASIZE PUSH1 0x1F NOT PUSH1 0x1F DUP3 ADD AND DUP3 ADD DUP1 PUSH1 0x40 MSTORE POP DUP2 ADD SWAP1 PUSH2 0x4E0 SWAP2 SWAP1 PUSH2 0x144C JUMP JUMPDEST PUSH1 0x5 DUP2 SWAP1 SSTORE POP POP POP POP JUMP JUMPDEST PUSH1 0x0 PUSH1 0x60 PUSH1 0x0 PUSH1 0x1 DUP1 DUP2 GT ISZERO PUSH2 0x504 JUMPI PUSH2 0x503 PUSH2 0x1479 JUMP JUMPDEST JUMPDEST PUSH1 0xD PUSH1 0x0 SWAP1 SLOAD SWAP1 PUSH2 0x100 EXP SWAP1 DIV PUSH1 0xFF AND PUSH1 0x1 DUP2 GT ISZERO PUSH2 0x526 JUMPI PUSH2 0x525 PUSH2 0x1479 JUMP JUMPDEST JUMPDEST EQ SWAP1 POP PUSH1 0x0 PUSH1 0x8 SLOAD PUSH1 0x7 SLOAD TIMESTAMP PUSH2 0x53C SWAP2 SWAP1 PUSH2 0x14D7 JUMP JUMPDEST GT SWAP1 POP PUSH1 0x0 PUSH8 0xDE0B6B3A7640000 SELFBALANCE GT SWAP1 POP DUP3 DUP1 ISZERO PUSH2 0x558 JUMPI POP DUP2 JUMPDEST DUP1 ISZERO PUSH2 0x561 JUMPI POP DUP1 JUMPDEST SWAP5 POP POP POP POP SWAP2 POP SWAP2 JUMP JUMPDEST PUSH1 0xA DUP2 DUP2 SLOAD DUP2 LT PUSH2 0x57B JUMPI PUSH1 0x0 DUP1 REVERT JUMPDEST SWAP1 PUSH1 0x0 MSTORE PUSH1 0x20 PUSH1 0x0 KECCAK256 SWAP1 PUSH1 0x2 MUL ADD PUSH1 0x0 SWAP2 POP SWAP1 POP DUP1 PUSH1 0x0 ADD PUSH1 0x0 SWAP1 SLOAD SWAP1 PUSH2 0x100 EXP SWAP1 DIV PUSH20 0xFFFFFFFFFFFFFFFFFFFFFFFFFFFFFFFFFFFFFFFF AND SWAP1 DUP1 PUSH1 0x1 ADD SLOAD SWAP1 POP DUP3 JUMP JUMPDEST PUSH1 0x8 SLOAD DUP2 JUMP JUMPDEST PUSH1 0xB DUP2 DUP2 SLOAD DUP2 LT PUSH2 0x5D5 JUMPI PUSH1 0x0 DUP1 REVERT JUMPDEST SWAP1 PUSH1 0x0 MSTORE PUSH1 0x20 PUSH1 0x0 KECCAK256 ADD PUSH1 0x0 SWAP2 POP SLOAD SWAP1 PUSH2 0x100 EXP SWAP1 DIV PUSH20 0xFFFFFFFFFFFFFFFFFFFFFFFFFFFFFFFFFFFFFFFF AND DUP2 JUMP JUMPDEST PUSH7 0x2386F26FC10000 CALLVALUE LT ISZERO PUSH2 0x645 JUMPI PUSH1 0x40 MLOAD PUSH32 0x6A6DF4C900000000000000000000000000000000000000000000000000000000 DUP2 MSTORE PUSH1 0x4 ADD PUSH1 0x40 MLOAD DUP1 SWAP2 SUB SWAP1 REVERT JUMPDEST PUSH1 0xD PUSH1 0x0 SWAP1 SLOAD SWAP1 PUSH2 0x100 EXP SWAP1 DIV PUSH1 0xFF AND PUSH1 0x1 DUP2 GT ISZERO PUSH2 0x667 JUMPI PUSH2 0x666 PUSH2 0x1479 JUMP JUMPDEST JUMPDEST PUSH1 0x1 DUP1 DUP2 GT ISZERO PUSH2 0x67A JUMPI PUSH2 0x679 PUSH2 0x1479 JUMP JUMPDEST JUMPDEST EQ PUSH2 0x6B1 JUMPI PUSH1 0x40 MLOAD PUSH32 0xC9BCC82E00000000000000000000000000000000000000000000000000000000 DUP2 MSTORE PUSH1 0x4 ADD PUSH1 0x40 MLOAD DUP1 SWAP2 SUB SWAP1 REVERT JUMPDEST PUSH1 0xA PUSH1 0x40 MLOAD DUP1 PUSH1 0x40 ADD PUSH1 0x40 MSTORE DUP1 CALLER PUSH20 0xFFFFFFFFFFFFFFFFFFFFFFFFFFFFFFFFFFFFFFFF AND DUP2 MSTORE PUSH1 0x20 ADD DUP4 DUP2 MSTORE POP SWAP1 DUP1 PUSH1 0x1 DUP2 SLOAD ADD DUP1 DUP3 SSTORE DUP1 SWAP2 POP POP PUSH1 0x1 SWAP1 SUB SWAP1 PUSH1 0x0 MSTORE PUSH1 0x20 PUSH1 0x0 KECCAK256 SWAP1 PUSH1 0x2 MUL ADD PUSH1 0x0 SWAP1 SWAP2 SWAP1 SWAP2 SWAP1 SWAP2 POP PUSH1 0x0 DUP3 ADD MLOAD DUP2 PUSH1 0x0 ADD PUSH1 0x0 PUSH2 0x100 EXP DUP2 SLOAD DUP2 PUSH20 0xFFFFFFFFFFFFFFFFFFFFFFFFFFFFFFFFFFFFFFFF MUL NOT AND SWAP1 DUP4 PUSH20 0xFFFFFFFFFFFFFFFFFFFFFFFFFFFFFFFFFFFFFFFF AND MUL OR SWAP1 SSTORE POP PUSH1 0x20 DUP3 ADD MLOAD DUP2 PUSH1 0x1 ADD SSTORE POP POP DUP1 PUSH1 0x9 PUSH1 0x0 CALLER PUSH20 0xFFFFFFFFFFFFFFFFFFFFFFFFFFFFFFFFFFFFFFFF AND PUSH20 0xFFFFFFFFFFFFFFFFFFFFFFFFFFFFFFFFFFFFFFFF AND DUP2 MSTORE PUSH1 0x20 ADD SWAP1 DUP2 MSTORE PUSH1 0x20 ADD PUSH1 0x0 KECCAK256 DUP2 SWAP1 SSTORE POP PUSH32 0x87BBCB76CA2A0ACF0732F7CDDAFC17B54B6EFDA4A5D6682F1F677C9BFB8D990F CALLER PUSH1 0x40 MLOAD PUSH2 0x7CD SWAP2 SWAP1 PUSH2 0x12CF JUMP JUMPDEST PUSH1 0x40 MLOAD DUP1 SWAP2 SUB SWAP1 LOG1 POP JUMP JUMPDEST PUSH1 0x9 PUSH1 0x20 MSTORE DUP1 PUSH1 0x0 MSTORE PUSH1 0x40 PUSH1 0x0 KECCAK256 PUSH1 0x0 SWAP2 POP SWAP1 POP SLOAD DUP2 JUMP JUMPDEST PUSH1 0x5 SLOAD DUP2 JUMP JUMPDEST PUSH1 0x0 PUSH1 0x1 DUP2 GT ISZERO PUSH2 0x80A JUMPI PUSH2 0x809 PUSH2 0x1479 JUMP JUMPDEST JUMPDEST PUSH1 0xD PUSH1 0x0 SWAP1 SLOAD SWAP1 PUSH2 0x100 EXP SWAP1 DIV PUSH1 0xFF AND PUSH1 0x1 DUP2 GT ISZERO PUSH2 0x82C JUMPI PUSH2 0x82B PUSH2 0x1479 JUMP JUMPDEST JUMPDEST EQ PUSH2 0x863 JUMPI PUSH1 0x40 MLOAD PUSH32 0xB4EB319700000000000000000000000000000000000000000000000000000000 DUP2 MSTORE PUSH1 0x4 ADD PUSH1 0x40 MLOAD DUP1 SWAP2 SUB SWAP1 REVERT JUMPDEST PUSH1 0x0 DUP1 JUMPDEST PUSH1 0xA DUP1 SLOAD SWAP1 POP DUP2 LT ISZERO PUSH2 0x9C2 JUMPI PUSH1 0xA DUP2 DUP2 SLOAD DUP2 LT PUSH2 0x888 JUMPI PUSH2 0x887 PUSH2 0x150B JUMP JUMPDEST JUMPDEST SWAP1 PUSH1 0x0 MSTORE PUSH1 0x20 PUSH1 0x0 KECCAK256 SWAP1 PUSH1 0x2 MUL ADD PUSH1 0x1 ADD SLOAD PUSH1 0xE SLOAD EQ ISZERO PUSH2 0x95B JUMPI PUSH1 0x1 DUP3 PUSH2 0x8B0 SWAP2 SWAP1 PUSH2 0x153A JUMP JUMPDEST SWAP2 POP PUSH1 0xB PUSH1 0xA DUP3 DUP2 SLOAD DUP2 LT PUSH2 0x8C8 JUMPI PUSH2 0x8C7 PUSH2 0x150B JUMP JUMPDEST JUMPDEST SWAP1 PUSH1 0x0 MSTORE PUSH1 0x20 PUSH1 0x0 KECCAK256 SWAP1 PUSH1 0x2 MUL ADD PUSH1 0x0 ADD PUSH1 0x0 SWAP1 SLOAD SWAP1 PUSH2 0x100 EXP SWAP1 DIV PUSH20 0xFFFFFFFFFFFFFFFFFFFFFFFFFFFFFFFFFFFFFFFF AND SWAP1 DUP1 PUSH1 0x1 DUP2 SLOAD ADD DUP1 DUP3 SSTORE DUP1 SWAP2 POP POP PUSH1 0x1 SWAP1 SUB SWAP1 PUSH1 0x0 MSTORE PUSH1 0x20 PUSH1 0x0 KECCAK256 ADD PUSH1 0x0 SWAP1 SWAP2 SWAP1 SWAP2 SWAP1 SWAP2 PUSH2 0x100 EXP DUP2 SLOAD DUP2 PUSH20 0xFFFFFFFFFFFFFFFFFFFFFFFFFFFFFFFFFFFFFFFF MUL NOT AND SWAP1 DUP4 PUSH20 0xFFFFFFFFFFFFFFFFFFFFFFFFFFFFFFFFFFFFFFFF AND MUL OR SWAP1 SSTORE POP JUMPDEST PUSH1 0xA DUP2 DUP2 SLOAD DUP2 LT PUSH2 0x96F JUMPI PUSH2 0x96E PUSH2 0x150B JUMP JUMPDEST JUMPDEST SWAP1 PUSH1 0x0 MSTORE PUSH1 0x20 PUSH1 0x0 KECCAK256 SWAP1 PUSH1 0x2 MUL ADD PUSH1 0x0 DUP1 DUP3 ADD PUSH1 0x0 PUSH2 0x100 EXP DUP2 SLOAD SWAP1 PUSH20 0xFFFFFFFFFFFFFFFFFFFFFFFFFFFFFFFFFFFFFFFF MUL NOT AND SWAP1 SSTORE PUSH1 0x1 DUP3 ADD PUSH1 0x0 SWAP1 SSTORE POP POP DUP1 DUP1 PUSH2 0x9BA SWAP1 PUSH2 0x1590 JUMP JUMPDEST SWAP2 POP POP PUSH2 0x867 JUMP JUMPDEST POP PUSH1 0x0 JUMPDEST PUSH1 0xB DUP1 SLOAD SWAP1 POP DUP2 LT ISZERO PUSH2 0xB70 JUMPI PUSH1 0x0 PUSH8 0xDE0B6B3A7640000 PUSH1 0xB DUP1 SLOAD SWAP1 POP PUSH1 0x1 PUSH2 0x9F0 SWAP2 SWAP1 PUSH2 0x1608 JUMP JUMPDEST PUSH2 0x9FA SWAP2 SWAP1 PUSH2 0x1639 JUMP JUMPDEST SWAP1 POP PUSH1 0x0 PUSH1 0xB DUP4 DUP2 SLOAD DUP2 LT PUSH2 0xA12 JUMPI PUSH2 0xA11 PUSH2 0x150B JUMP JUMPDEST JUMPDEST SWAP1 PUSH1 0x0 MSTORE PUSH1 0x20 PUSH1 0x0 KECCAK256 ADD PUSH1 0x0 SWAP1 SLOAD SWAP1 PUSH2 0x100 EXP SWAP1 DIV PUSH20 0xFFFFFFFFFFFFFFFFFFFFFFFFFFFFFFFFFFFFFFFF AND PUSH20 0xFFFFFFFFFFFFFFFFFFFFFFFFFFFFFFFFFFFFFFFF AND DUP3 PUSH1 0x40 MLOAD PUSH2 0xA60 SWAP1 PUSH2 0x16C4 JUMP JUMPDEST PUSH1 0x0 PUSH1 0x40 MLOAD DUP1 DUP4 SUB DUP2 DUP6 DUP8 GAS CALL SWAP3 POP POP POP RETURNDATASIZE DUP1 PUSH1 0x0 DUP2 EQ PUSH2 0xA9D JUMPI PUSH1 0x40 MLOAD SWAP2 POP PUSH1 0x1F NOT PUSH1 0x3F RETURNDATASIZE ADD AND DUP3 ADD PUSH1 0x40 MSTORE RETURNDATASIZE DUP3 MSTORE RETURNDATASIZE PUSH1 0x0 PUSH1 0x20 DUP5 ADD RETURNDATACOPY PUSH2 0xAA2 JUMP JUMPDEST PUSH1 0x60 SWAP2 POP JUMPDEST POP POP SWAP1 POP DUP1 PUSH2 0xAE6 JUMPI PUSH1 0x40 MLOAD PUSH32 0x8C379A000000000000000000000000000000000000000000000000000000000 DUP2 MSTORE PUSH1 0x4 ADD PUSH2 0xADD SWAP1 PUSH2 0x1736 JUMP JUMPDEST PUSH1 0x40 MLOAD DUP1 SWAP2 SUB SWAP1 REVERT JUMPDEST PUSH32 0x2FB5676AF721F279A52B33D9AE31F5CC54234B3D4B5495E3D34E64ACFFB326CB PUSH1 0xB DUP5 DUP2 SLOAD DUP2 LT PUSH2 0xB1B JUMPI PUSH2 0xB1A PUSH2 0x150B JUMP JUMPDEST JUMPDEST SWAP1 PUSH1 0x0 MSTORE PUSH1 0x20 PUSH1 0x0 KECCAK256 ADD PUSH1 0x0 SWAP1 SLOAD SWAP1 PUSH2 0x100 EXP SWAP1 DIV PUSH20 0xFFFFFFFFFFFFFFFFFFFFFFFFFFFFFFFFFFFFFFFF AND PUSH1 0x40 MLOAD PUSH2 0xB53 SWAP2 SWAP1 PUSH2 0x12CF JUMP JUMPDEST PUSH1 0x40 MLOAD DUP1 SWAP2 SUB SWAP1 LOG1 POP POP DUP1 DUP1 PUSH2 0xB68 SWAP1 PUSH2 0x1590 JUMP JUMPDEST SWAP2 POP POP PUSH2 0x9C6 JUMP JUMPDEST POP TIMESTAMP PUSH1 0x7 DUP2 SWAP1 SSTORE POP PUSH1 0x0 PUSH8 0xFFFFFFFFFFFFFFFF DUP2 GT ISZERO PUSH2 0xB93 JUMPI PUSH2 0xB92 PUSH2 0xDF6 JUMP JUMPDEST JUMPDEST PUSH1 0x40 MLOAD SWAP1 DUP1 DUP3 MSTORE DUP1 PUSH1 0x20 MUL PUSH1 0x20 ADD DUP3 ADD PUSH1 0x40 MSTORE DUP1 ISZERO PUSH2 0xBC1 JUMPI DUP2 PUSH1 0x20 ADD PUSH1 0x20 DUP3 MUL DUP1 CALLDATASIZE DUP4 CALLDATACOPY DUP1 DUP3 ADD SWAP2 POP POP SWAP1 POP JUMPDEST POP PUSH1 0xB SWAP1 DUP1 MLOAD SWAP1 PUSH1 0x20 ADD SWAP1 PUSH2 0xBD7 SWAP3 SWAP2 SWAP1 PUSH2 0xCA2 JUMP JUMPDEST POP PUSH1 0x1 PUSH1 0xD PUSH1 0x0 PUSH2 0x100 EXP DUP2 SLOAD DUP2 PUSH1 0xFF MUL NOT AND SWAP1 DUP4 PUSH1 0x1 DUP2 GT ISZERO PUSH2 0xBFE JUMPI PUSH2 0xBFD PUSH2 0x1479 JUMP JUMPDEST JUMPDEST MUL OR SWAP1 SSTORE POP POP JUMP JUMPDEST PUSH1 0x4 DUP2 DUP2 SLOAD DUP2 LT PUSH2 0xC16 JUMPI PUSH1 0x0 DUP1 REVERT JUMPDEST SWAP1 PUSH1 0x0 MSTORE PUSH1 0x20 PUSH1 0x0 KECCAK256 ADD PUSH1 0x0 SWAP2 POP SWAP1 POP SLOAD DUP2 JUMP JUMPDEST DUP1 PUSH1 0x4 SWAP1 DUP1 MLOAD SWAP1 PUSH1 0x20 ADD SWAP1 PUSH2 0xC40 SWAP3 SWAP2 SWAP1 PUSH2 0xD2C JUMP JUMPDEST POP PUSH1 0x63 PUSH1 0x4 PUSH1 0x0 DUP2 SLOAD DUP2 LT PUSH2 0xC58 JUMPI PUSH2 0xC57 PUSH2 0x150B JUMP JUMPDEST JUMPDEST SWAP1 PUSH1 0x0 MSTORE PUSH1 0x20 PUSH1 0x0 KECCAK256 ADD SLOAD PUSH2 0xC6D SWAP2 SWAP1 PUSH2 0x1756 JUMP JUMPDEST PUSH1 0xE DUP2 SWAP1 SSTORE POP PUSH1 0x0 PUSH1 0xD PUSH1 0x0 PUSH2 0x100 EXP DUP2 SLOAD DUP2 PUSH1 0xFF MUL NOT AND SWAP1 DUP4 PUSH1 0x1 DUP2 GT ISZERO PUSH2 0xC99 JUMPI PUSH2 0xC98 PUSH2 0x1479 JUMP JUMPDEST JUMPDEST MUL OR SWAP1 SSTORE POP POP POP JUMP JUMPDEST DUP3 DUP1 SLOAD DUP3 DUP3 SSTORE SWAP1 PUSH1 0x0 MSTORE PUSH1 0x20 PUSH1 0x0 KECCAK256 SWAP1 DUP2 ADD SWAP3 DUP3 ISZERO PUSH2 0xD1B JUMPI SWAP2 PUSH1 0x20 MUL DUP3 ADD JUMPDEST DUP3 DUP2 GT ISZERO PUSH2 0xD1A JUMPI DUP3 MLOAD DUP3 PUSH1 0x0 PUSH2 0x100 EXP DUP2 SLOAD DUP2 PUSH20 0xFFFFFFFFFFFFFFFFFFFFFFFFFFFFFFFFFFFFFFFF MUL NOT AND SWAP1 DUP4 PUSH20 0xFFFFFFFFFFFFFFFFFFFFFFFFFFFFFFFFFFFFFFFF AND MUL OR SWAP1 SSTORE POP SWAP2 PUSH1 0x20 ADD SWAP2 SWAP1 PUSH1 0x1 ADD SWAP1 PUSH2 0xCC2 JUMP JUMPDEST JUMPDEST POP SWAP1 POP PUSH2 0xD28 SWAP2 SWAP1 PUSH2 0xD79 JUMP JUMPDEST POP SWAP1 JUMP JUMPDEST DUP3 DUP1 SLOAD DUP3 DUP3 SSTORE SWAP1 PUSH1 0x0 MSTORE PUSH1 0x20 PUSH1 0x0 KECCAK256 SWAP1 DUP2 ADD SWAP3 DUP3 ISZERO PUSH2 0xD68 JUMPI SWAP2 PUSH1 0x20 MUL DUP3 ADD JUMPDEST DUP3 DUP2 GT ISZERO PUSH2 0xD67 JUMPI DUP3 MLOAD DUP3 SSTORE SWAP2 PUSH1 0x20 ADD SWAP2 SWAP1 PUSH1 0x1 ADD SWAP1 PUSH2 0xD4C JUMP JUMPDEST JUMPDEST POP SWAP1 POP PUSH2 0xD75 SWAP2 SWAP1 PUSH2 0xD79 JUMP JUMPDEST POP SWAP1 JUMP JUMPDEST JUMPDEST DUP1 DUP3 GT ISZERO PUSH2 0xD92 JUMPI PUSH1 0x0 DUP2 PUSH1 0x0 SWAP1 SSTORE POP PUSH1 0x1 ADD PUSH2 0xD7A JUMP JUMPDEST POP SWAP1 JUMP JUMPDEST PUSH1 0x0 PUSH1 0x40 MLOAD SWAP1 POP SWAP1 JUMP JUMPDEST PUSH1 0x0 DUP1 REVERT JUMPDEST PUSH1 0x0 DUP1 REVERT JUMPDEST PUSH1 0x0 DUP2 SWAP1 POP SWAP2 SWAP1 POP JUMP JUMPDEST PUSH2 0xDBD DUP2 PUSH2 0xDAA JUMP JUMPDEST DUP2 EQ PUSH2 0xDC8 JUMPI PUSH1 0x0 DUP1 REVERT JUMPDEST POP JUMP JUMPDEST PUSH1 0x0 DUP2 CALLDATALOAD SWAP1 POP PUSH2 0xDDA DUP2 PUSH2 0xDB4 JUMP JUMPDEST SWAP3 SWAP2 POP POP JUMP JUMPDEST PUSH1 0x0 DUP1 REVERT JUMPDEST PUSH1 0x0 PUSH1 0x1F NOT PUSH1 0x1F DUP4 ADD AND SWAP1 POP SWAP2 SWAP1 POP JUMP JUMPDEST PUSH32 0x4E487B7100000000000000000000000000000000000000000000000000000000 PUSH1 0x0 MSTORE PUSH1 0x41 PUSH1 0x4 MSTORE PUSH1 0x24 PUSH1 0x0 REVERT JUMPDEST PUSH2 0xE2E DUP3 PUSH2 0xDE5 JUMP JUMPDEST DUP2 ADD DUP2 DUP2 LT PUSH8 0xFFFFFFFFFFFFFFFF DUP3 GT OR ISZERO PUSH2 0xE4D JUMPI PUSH2 0xE4C PUSH2 0xDF6 JUMP JUMPDEST JUMPDEST DUP1 PUSH1 0x40 MSTORE POP POP POP JUMP JUMPDEST PUSH1 0x0 PUSH2 0xE60 PUSH2 0xD96 JUMP JUMPDEST SWAP1 POP PUSH2 0xE6C DUP3 DUP3 PUSH2 0xE25 JUMP JUMPDEST SWAP2 SWAP1 POP JUMP JUMPDEST PUSH1 0x0 PUSH8 0xFFFFFFFFFFFFFFFF DUP3 GT ISZERO PUSH2 0xE8C JUMPI PUSH2 0xE8B PUSH2 0xDF6 JUMP JUMPDEST JUMPDEST PUSH1 0x20 DUP3 MUL SWAP1 POP PUSH1 0x20 DUP2 ADD SWAP1 POP SWAP2 SWAP1 POP JUMP JUMPDEST PUSH1 0x0 DUP1 REVERT JUMPDEST PUSH1 0x0 PUSH2 0xEB5 PUSH2 0xEB0 DUP5 PUSH2 0xE71 JUMP JUMPDEST PUSH2 0xE56 JUMP JUMPDEST SWAP1 POP DUP1 DUP4 DUP3 MSTORE PUSH1 0x20 DUP3 ADD SWAP1 POP PUSH1 0x20 DUP5 MUL DUP4 ADD DUP6 DUP2 GT ISZERO PUSH2 0xED8 JUMPI PUSH2 0xED7 PUSH2 0xE9D JUMP JUMPDEST JUMPDEST DUP4 JUMPDEST DUP2 DUP2 LT ISZERO PUSH2 0xF01 JUMPI DUP1 PUSH2 0xEED DUP9 DUP3 PUSH2 0xDCB JUMP JUMPDEST DUP5 MSTORE PUSH1 0x20 DUP5 ADD SWAP4 POP POP PUSH1 0x20 DUP2 ADD SWAP1 POP PUSH2 0xEDA JUMP JUMPDEST POP POP POP SWAP4 SWAP3 POP POP POP JUMP JUMPDEST PUSH1 0x0 DUP3 PUSH1 0x1F DUP4 ADD SLT PUSH2 0xF20 JUMPI PUSH2 0xF1F PUSH2 0xDE0 JUMP JUMPDEST JUMPDEST DUP2 CALLDATALOAD PUSH2 0xF30 DUP5 DUP3 PUSH1 0x20 DUP7 ADD PUSH2 0xEA2 JUMP JUMPDEST SWAP2 POP POP SWAP3 SWAP2 POP POP JUMP JUMPDEST PUSH1 0x0 DUP1 PUSH1 0x40 DUP4 DUP6 SUB SLT ISZERO PUSH2 0xF50 JUMPI PUSH2 0xF4F PUSH2 0xDA0 JUMP JUMPDEST JUMPDEST PUSH1 0x0 PUSH2 0xF5E DUP6 DUP3 DUP7 ADD PUSH2 0xDCB JUMP JUMPDEST SWAP3 POP POP PUSH1 0x20 DUP4 ADD CALLDATALOAD PUSH8 0xFFFFFFFFFFFFFFFF DUP2 GT ISZERO PUSH2 0xF7F JUMPI PUSH2 0xF7E PUSH2 0xDA5 JUMP JUMPDEST JUMPDEST PUSH2 0xF8B DUP6 DUP3 DUP7 ADD PUSH2 0xF0B JUMP JUMPDEST SWAP2 POP POP SWAP3 POP SWAP3 SWAP1 POP JUMP JUMPDEST PUSH2 0xF9E DUP2 PUSH2 0xDAA JUMP JUMPDEST DUP3 MSTORE POP POP JUMP JUMPDEST PUSH1 0x0 PUSH1 0x20 DUP3 ADD SWAP1 POP PUSH2 0xFB9 PUSH1 0x0 DUP4 ADD DUP5 PUSH2 0xF95 JUMP JUMPDEST SWAP3 SWAP2 POP POP JUMP JUMPDEST PUSH1 0x0 DUP1 REVERT JUMPDEST PUSH1 0x0 DUP1 DUP4 PUSH1 0x1F DUP5 ADD SLT PUSH2 0xFDA JUMPI PUSH2 0xFD9 PUSH2 0xDE0 JUMP JUMPDEST JUMPDEST DUP3 CALLDATALOAD SWAP1 POP PUSH8 0xFFFFFFFFFFFFFFFF DUP2 GT ISZERO PUSH2 0xFF7 JUMPI PUSH2 0xFF6 PUSH2 0xFBF JUMP JUMPDEST JUMPDEST PUSH1 0x20 DUP4 ADD SWAP2 POP DUP4 PUSH1 0x1 DUP3 MUL DUP4 ADD GT ISZERO PUSH2 0x1013 JUMPI PUSH2 0x1012 PUSH2 0xE9D JUMP JUMPDEST JUMPDEST SWAP3 POP SWAP3 SWAP1 POP JUMP JUMPDEST PUSH1 0x0 DUP1 PUSH1 0x20 DUP4 DUP6 SUB SLT ISZERO PUSH2 0x1031 JUMPI PUSH2 0x1030 PUSH2 0xDA0 JUMP JUMPDEST JUMPDEST PUSH1 0x0 DUP4 ADD CALLDATALOAD PUSH8 0xFFFFFFFFFFFFFFFF DUP2 GT ISZERO PUSH2 0x104F JUMPI PUSH2 0x104E PUSH2 0xDA5 JUMP JUMPDEST JUMPDEST PUSH2 0x105B DUP6 DUP3 DUP7 ADD PUSH2 0xFC4 JUMP JUMPDEST SWAP3 POP SWAP3 POP POP SWAP3 POP SWAP3 SWAP1 POP JUMP JUMPDEST PUSH1 0x0 DUP1 REVERT JUMPDEST PUSH1 0x0 PUSH8 0xFFFFFFFFFFFFFFFF DUP3 GT ISZERO PUSH2 0x1087 JUMPI PUSH2 0x1086 PUSH2 0xDF6 JUMP JUMPDEST JUMPDEST PUSH2 0x1090 DUP3 PUSH2 0xDE5 JUMP JUMPDEST SWAP1 POP PUSH1 0x20 DUP2 ADD SWAP1 POP SWAP2 SWAP1 POP JUMP JUMPDEST DUP3 DUP2 DUP4 CALLDATACOPY PUSH1 0x0 DUP4 DUP4 ADD MSTORE POP POP POP JUMP JUMPDEST PUSH1 0x0 PUSH2 0x10BF PUSH2 0x10BA DUP5 PUSH2 0x106C JUMP JUMPDEST PUSH2 0xE56 JUMP JUMPDEST SWAP1 POP DUP3 DUP2 MSTORE PUSH1 0x20 DUP2 ADD DUP5 DUP5 DUP5 ADD GT ISZERO PUSH2 0x10DB JUMPI PUSH2 0x10DA PUSH2 0x1067 JUMP JUMPDEST JUMPDEST PUSH2 0x10E6 DUP5 DUP3 DUP6 PUSH2 0x109D JUMP JUMPDEST POP SWAP4 SWAP3 POP POP POP JUMP JUMPDEST PUSH1 0x0 DUP3 PUSH1 0x1F DUP4 ADD SLT PUSH2 0x1103 JUMPI PUSH2 0x1102 PUSH2 0xDE0 JUMP JUMPDEST JUMPDEST DUP2 CALLDATALOAD PUSH2 0x1113 DUP5 DUP3 PUSH1 0x20 DUP7 ADD PUSH2 0x10AC JUMP JUMPDEST SWAP2 POP POP SWAP3 SWAP2 POP POP JUMP JUMPDEST PUSH1 0x0 PUSH1 0x20 DUP3 DUP5 SUB SLT ISZERO PUSH2 0x1132 JUMPI PUSH2 0x1131 PUSH2 0xDA0 JUMP JUMPDEST JUMPDEST PUSH1 0x0 DUP3 ADD CALLDATALOAD PUSH8 0xFFFFFFFFFFFFFFFF DUP2 GT ISZERO PUSH2 0x1150 JUMPI PUSH2 0x114F PUSH2 0xDA5 JUMP JUMPDEST JUMPDEST PUSH2 0x115C DUP5 DUP3 DUP6 ADD PUSH2 0x10EE JUMP JUMPDEST SWAP2 POP POP SWAP3 SWAP2 POP POP JUMP JUMPDEST PUSH1 0x0 DUP2 ISZERO ISZERO SWAP1 POP SWAP2 SWAP1 POP JUMP JUMPDEST PUSH2 0x117A DUP2 PUSH2 0x1165 JUMP JUMPDEST DUP3 MSTORE POP POP JUMP JUMPDEST PUSH1 0x0 DUP2 MLOAD SWAP1 POP SWAP2 SWAP1 POP JUMP JUMPDEST PUSH1 0x0 DUP3 DUP3 MSTORE PUSH1 0x20 DUP3 ADD SWAP1 POP SWAP3 SWAP2 POP POP JUMP JUMPDEST PUSH1 0x0 JUMPDEST DUP4 DUP2 LT ISZERO PUSH2 0x11BA JUMPI DUP1 DUP3 ADD MLOAD DUP2 DUP5 ADD MSTORE PUSH1 0x20 DUP2 ADD SWAP1 POP PUSH2 0x119F JUMP JUMPDEST DUP4 DUP2 GT ISZERO PUSH2 0x11C9 JUMPI PUSH1 0x0 DUP5 DUP5 ADD MSTORE JUMPDEST POP POP POP POP JUMP JUMPDEST PUSH1 0x0 PUSH2 0x11DA DUP3 PUSH2 0x1180 JUMP JUMPDEST PUSH2 0x11E4 DUP2 DUP6 PUSH2 0x118B JUMP JUMPDEST SWAP4 POP PUSH2 0x11F4 DUP2 DUP6 PUSH1 0x20 DUP7 ADD PUSH2 0x119C JUMP JUMPDEST PUSH2 0x11FD DUP2 PUSH2 0xDE5 JUMP JUMPDEST DUP5 ADD SWAP2 POP POP SWAP3 SWAP2 POP POP JUMP JUMPDEST PUSH1 0x0 PUSH1 0x40 DUP3 ADD SWAP1 POP PUSH2 0x121D PUSH1 0x0 DUP4 ADD DUP6 PUSH2 0x1171 JUMP JUMPDEST DUP2 DUP2 SUB PUSH1 0x20 DUP4 ADD MSTORE PUSH2 0x122F DUP2 DUP5 PUSH2 0x11CF JUMP JUMPDEST SWAP1 POP SWAP4 SWAP3 POP POP POP JUMP JUMPDEST PUSH1 0x0 PUSH1 0x20 DUP3 DUP5 SUB SLT ISZERO PUSH2 0x124E JUMPI PUSH2 0x124D PUSH2 0xDA0 JUMP JUMPDEST JUMPDEST PUSH1 0x0 PUSH2 0x125C DUP5 DUP3 DUP6 ADD PUSH2 0xDCB JUMP JUMPDEST SWAP2 POP POP SWAP3 SWAP2 POP POP JUMP JUMPDEST PUSH1 0x0 PUSH20 0xFFFFFFFFFFFFFFFFFFFFFFFFFFFFFFFFFFFFFFFF DUP3 AND SWAP1 POP SWAP2 SWAP1 POP JUMP JUMPDEST PUSH1 0x0 PUSH2 0x1290 DUP3 PUSH2 0x1265 JUMP JUMPDEST SWAP1 POP SWAP2 SWAP1 POP JUMP JUMPDEST PUSH2 0x12A0 DUP2 PUSH2 0x1285 JUMP JUMPDEST DUP3 MSTORE POP POP JUMP JUMPDEST PUSH1 0x0 PUSH1 0x40 DUP3 ADD SWAP1 POP PUSH2 0x12BB PUSH1 0x0 DUP4 ADD DUP6 PUSH2 0x1297 JUMP JUMPDEST PUSH2 0x12C8 PUSH1 0x20 DUP4 ADD DUP5 PUSH2 0xF95 JUMP JUMPDEST SWAP4 SWAP3 POP POP POP JUMP JUMPDEST PUSH1 0x0 PUSH1 0x20 DUP3 ADD SWAP1 POP PUSH2 0x12E4 PUSH1 0x0 DUP4 ADD DUP5 PUSH2 0x1297 JUMP JUMPDEST SWAP3 SWAP2 POP POP JUMP JUMPDEST PUSH2 0x12F3 DUP2 PUSH2 0x1285 JUMP JUMPDEST DUP2 EQ PUSH2 0x12FE JUMPI PUSH1 0x0 DUP1 REVERT JUMPDEST POP JUMP JUMPDEST PUSH1 0x0 DUP2 CALLDATALOAD SWAP1 POP PUSH2 0x1310 DUP2 PUSH2 0x12EA JUMP JUMPDEST SWAP3 SWAP2 POP POP JUMP JUMPDEST PUSH1 0x0 PUSH1 0x20 DUP3 DUP5 SUB SLT ISZERO PUSH2 0x132C JUMPI PUSH2 0x132B PUSH2 0xDA0 JUMP JUMPDEST JUMPDEST PUSH1 0x0 PUSH2 0x133A DUP5 DUP3 DUP6 ADD PUSH2 0x1301 JUMP JUMPDEST SWAP2 POP POP SWAP3 SWAP2 POP POP JUMP JUMPDEST PUSH1 0x0 PUSH1 0x40 DUP3 ADD SWAP1 POP PUSH2 0x1358 PUSH1 0x0 DUP4 ADD DUP6 PUSH2 0x1297 JUMP JUMPDEST PUSH2 0x1365 PUSH1 0x20 DUP4 ADD DUP5 PUSH2 0x1297 JUMP JUMPDEST SWAP4 SWAP3 POP POP POP JUMP JUMPDEST PUSH1 0x0 DUP2 SWAP1 POP SWAP2 SWAP1 POP JUMP JUMPDEST PUSH2 0x137F DUP2 PUSH2 0x136C JUMP JUMPDEST DUP3 MSTORE POP POP JUMP JUMPDEST PUSH1 0x0 PUSH8 0xFFFFFFFFFFFFFFFF DUP3 AND SWAP1 POP SWAP2 SWAP1 POP JUMP JUMPDEST PUSH2 0x13A2 DUP2 PUSH2 0x1385 JUMP JUMPDEST DUP3 MSTORE POP POP JUMP JUMPDEST PUSH1 0x0 PUSH2 0xFFFF DUP3 AND SWAP1 POP SWAP2 SWAP1 POP JUMP JUMPDEST PUSH2 0x13BF DUP2 PUSH2 0x13A8 JUMP JUMPDEST DUP3 MSTORE POP POP JUMP JUMPDEST PUSH1 0x0 PUSH4 0xFFFFFFFF DUP3 AND SWAP1 POP SWAP2 SWAP1 POP JUMP JUMPDEST PUSH2 0x13DE DUP2 PUSH2 0x13C5 JUMP JUMPDEST DUP3 MSTORE POP POP JUMP JUMPDEST PUSH1 0x0 PUSH1 0xA0 DUP3 ADD SWAP1 POP PUSH2 0x13F9 PUSH1 0x0 DUP4 ADD DUP9 PUSH2 0x1376 JUMP JUMPDEST PUSH2 0x1406 PUSH1 0x20 DUP4 ADD DUP8 PUSH2 0x1399 JUMP JUMPDEST PUSH2 0x1413 PUSH1 0x40 DUP4 ADD DUP7 PUSH2 0x13B6 JUMP JUMPDEST PUSH2 0x1420 PUSH1 0x60 DUP4 ADD DUP6 PUSH2 0x13D5 JUMP JUMPDEST PUSH2 0x142D PUSH1 0x80 DUP4 ADD DUP5 PUSH2 0x13D5 JUMP JUMPDEST SWAP7 SWAP6 POP POP POP POP POP POP JUMP JUMPDEST PUSH1 0x0 DUP2 MLOAD SWAP1 POP PUSH2 0x1446 DUP2 PUSH2 0xDB4 JUMP JUMPDEST SWAP3 SWAP2 POP POP JUMP JUMPDEST PUSH1 0x0 PUSH1 0x20 DUP3 DUP5 SUB SLT ISZERO PUSH2 0x1462 JUMPI PUSH2 0x1461 PUSH2 0xDA0 JUMP JUMPDEST JUMPDEST PUSH1 0x0 PUSH2 0x1470 DUP5 DUP3 DUP6 ADD PUSH2 0x1437 JUMP JUMPDEST SWAP2 POP POP SWAP3 SWAP2 POP POP JUMP JUMPDEST PUSH32 0x4E487B7100000000000000000000000000000000000000000000000000000000 PUSH1 0x0 MSTORE PUSH1 0x21 PUSH1 0x4 MSTORE PUSH1 0x24 PUSH1 0x0 REVERT JUMPDEST PUSH32 0x4E487B7100000000000000000000000000000000000000000000000000000000 PUSH1 0x0 MSTORE PUSH1 0x11 PUSH1 0x4 MSTORE PUSH1 0x24 PUSH1 0x0 REVERT JUMPDEST PUSH1 0x0 PUSH2 0x14E2 DUP3 PUSH2 0xDAA JUMP JUMPDEST SWAP2 POP PUSH2 0x14ED DUP4 PUSH2 0xDAA JUMP JUMPDEST SWAP3 POP DUP3 DUP3 LT ISZERO PUSH2 0x1500 JUMPI PUSH2 0x14FF PUSH2 0x14A8 JUMP JUMPDEST JUMPDEST DUP3 DUP3 SUB SWAP1 POP SWAP3 SWAP2 POP POP JUMP JUMPDEST PUSH32 0x4E487B7100000000000000000000000000000000000000000000000000000000 PUSH1 0x0 MSTORE PUSH1 0x32 PUSH1 0x4 MSTORE PUSH1 0x24 PUSH1 0x0 REVERT JUMPDEST PUSH1 0x0 PUSH2 0x1545 DUP3 PUSH2 0xDAA JUMP JUMPDEST SWAP2 POP PUSH2 0x1550 DUP4 PUSH2 0xDAA JUMP JUMPDEST SWAP3 POP DUP3 PUSH32 0xFFFFFFFFFFFFFFFFFFFFFFFFFFFFFFFFFFFFFFFFFFFFFFFFFFFFFFFFFFFFFFFF SUB DUP3 GT ISZERO PUSH2 0x1585 JUMPI PUSH2 0x1584 PUSH2 0x14A8 JUMP JUMPDEST JUMPDEST DUP3 DUP3 ADD SWAP1 POP SWAP3 SWAP2 POP POP JUMP JUMPDEST PUSH1 0x0 PUSH2 0x159B DUP3 PUSH2 0xDAA JUMP JUMPDEST SWAP2 POP PUSH32 0xFFFFFFFFFFFFFFFFFFFFFFFFFFFFFFFFFFFFFFFFFFFFFFFFFFFFFFFFFFFFFFFF DUP3 EQ ISZERO PUSH2 0x15CE JUMPI PUSH2 0x15CD PUSH2 0x14A8 JUMP JUMPDEST JUMPDEST PUSH1 0x1 DUP3 ADD SWAP1 POP SWAP2 SWAP1 POP JUMP JUMPDEST PUSH32 0x4E487B7100000000000000000000000000000000000000000000000000000000 PUSH1 0x0 MSTORE PUSH1 0x12 PUSH1 0x4 MSTORE PUSH1 0x24 PUSH1 0x0 REVERT JUMPDEST PUSH1 0x0 PUSH2 0x1613 DUP3 PUSH2 0xDAA JUMP JUMPDEST SWAP2 POP PUSH2 0x161E DUP4 PUSH2 0xDAA JUMP JUMPDEST SWAP3 POP DUP3 PUSH2 0x162E JUMPI PUSH2 0x162D PUSH2 0x15D9 JUMP JUMPDEST JUMPDEST DUP3 DUP3 DIV SWAP1 POP SWAP3 SWAP2 POP POP JUMP JUMPDEST PUSH1 0x0 PUSH2 0x1644 DUP3 PUSH2 0xDAA JUMP JUMPDEST SWAP2 POP PUSH2 0x164F DUP4 PUSH2 0xDAA JUMP JUMPDEST SWAP3 POP DUP2 PUSH32 0xFFFFFFFFFFFFFFFFFFFFFFFFFFFFFFFFFFFFFFFFFFFFFFFFFFFFFFFFFFFFFFFF DIV DUP4 GT DUP3 ISZERO ISZERO AND ISZERO PUSH2 0x1688 JUMPI PUSH2 0x1687 PUSH2 0x14A8 JUMP JUMPDEST JUMPDEST DUP3 DUP3 MUL SWAP1 POP SWAP3 SWAP2 POP POP JUMP JUMPDEST PUSH1 0x0 DUP2 SWAP1 POP SWAP3 SWAP2 POP POP JUMP JUMPDEST POP JUMP JUMPDEST PUSH1 0x0 PUSH2 0x16AE PUSH1 0x0 DUP4 PUSH2 0x1693 JUMP JUMPDEST SWAP2 POP PUSH2 0x16B9 DUP3 PUSH2 0x169E JUMP JUMPDEST PUSH1 0x0 DUP3 ADD SWAP1 POP SWAP2 SWAP1 POP JUMP JUMPDEST PUSH1 0x0 PUSH2 0x16CF DUP3 PUSH2 0x16A1 JUMP JUMPDEST SWAP2 POP DUP2 SWAP1 POP SWAP2 SWAP1 POP JUMP JUMPDEST PUSH1 0x0 DUP3 DUP3 MSTORE PUSH1 0x20 DUP3 ADD SWAP1 POP SWAP3 SWAP2 POP POP JUMP JUMPDEST PUSH32 0x6574686572206E6F742073656E64000000000000000000000000000000000000 PUSH1 0x0 DUP3 ADD MSTORE POP JUMP JUMPDEST PUSH1 0x0 PUSH2 0x1720 PUSH1 0xE DUP4 PUSH2 0x16D9 JUMP JUMPDEST SWAP2 POP PUSH2 0x172B DUP3 PUSH2 0x16EA JUMP JUMPDEST PUSH1 0x20 DUP3 ADD SWAP1 POP SWAP2 SWAP1 POP JUMP JUMPDEST PUSH1 0x0 PUSH1 0x20 DUP3 ADD SWAP1 POP DUP2 DUP2 SUB PUSH1 0x0 DUP4 ADD MSTORE PUSH2 0x174F DUP2 PUSH2 0x1713 JUMP JUMPDEST SWAP1 POP SWAP2 SWAP1 POP JUMP JUMPDEST PUSH1 0x0 PUSH2 0x1761 DUP3 PUSH2 0xDAA JUMP JUMPDEST SWAP2 POP PUSH2 0x176C DUP4 PUSH2 0xDAA JUMP JUMPDEST SWAP3 POP DUP3 PUSH2 0x177C JUMPI PUSH2 0x177B PUSH2 0x15D9 JUMP JUMPDEST JUMPDEST DUP3 DUP3 MOD SWAP1 POP SWAP3 SWAP2 POP POP JUMP INVALID LOG2 PUSH5 0x6970667358 0x22 SLT KECCAK256 DIV 0xE0 EXTCODECOPY GASLIMIT 0xE8 0xC3 PUSH26 0x258E7080B4785754D01C2E83FDB6FA5AE55FC2D5A8B04A044664 PUSH20 0x6F6C634300080900330000000000000000000000 "
        },
        "gasEstimates": {
          "creation": {
            "codeDepositCost": "1215400",
            "executionCost": "infinite",
            "totalCost": "infinite"
          },
          "external": {
            "Buy_lottery(uint256)": "96881",
            "checkUpkeep(bytes)": "infinite",
            "interval()": "2540",
            "performUpkeep(bytes)": "infinite",
            "players(address)": "2858",
            "players_array(uint256)": "infinite",
            "rawFulfillRandomWords(uint256,uint256[])": "infinite",
            "s_randomWords(uint256)": "infinite",
            "s_requestId()": "2495",
            "send_money()": "infinite",
            "ticket_winner()": "2452",
            "winners(uint256)": "4956"
          },
          "internal": {
            "fulfillRandomWords(uint256,uint256[] memory)": "infinite"
          }
        },
        "methodIdentifiers": {
          "Buy_lottery(uint256)": "dcbd5416",
          "checkUpkeep(bytes)": "6e04ff0d",
          "interval()": "947a36fb",
          "performUpkeep(bytes)": "4585e33b",
          "players(address)": "e2eb41ff",
          "players_array(uint256)": "94743539",
          "rawFulfillRandomWords(uint256,uint256[])": "1fe543e3",
          "s_randomWords(uint256)": "f6eaffc8",
          "s_requestId()": "e89e106a",
          "send_money()": "f1e0bdf4",
          "ticket_winner()": "2d668845",
          "winners(uint256)": "a2fb1175"
        }
      },
      "storageLayout": {
        "storage": [
          {
            "astId": 197,
            "contract": "contracts/Raffle.sol:Raffle",
            "label": "COORDINATOR",
            "offset": 0,
            "slot": "0",
            "type": "t_contract(VRFCoordinatorV2Interface)165"
          },
          {
            "astId": 199,
            "contract": "contracts/Raffle.sol:Raffle",
            "label": "s_subscriptionId",
            "offset": 20,
            "slot": "0",
            "type": "t_uint64"
          },
          {
            "astId": 201,
            "contract": "contracts/Raffle.sol:Raffle",
            "label": "vrfCoordinator",
            "offset": 0,
            "slot": "1",
            "type": "t_address"
          },
          {
            "astId": 203,
            "contract": "contracts/Raffle.sol:Raffle",
            "label": "keyHash",
            "offset": 0,
            "slot": "2",
            "type": "t_bytes32"
          },
          {
            "astId": 211,
            "contract": "contracts/Raffle.sol:Raffle",
            "label": "numWords",
            "offset": 0,
            "slot": "3",
            "type": "t_uint32"
          },
          {
            "astId": 214,
            "contract": "contracts/Raffle.sol:Raffle",
            "label": "s_randomWords",
            "offset": 0,
            "slot": "4",
            "type": "t_array(t_uint256)dyn_storage"
          },
          {
            "astId": 216,
            "contract": "contracts/Raffle.sol:Raffle",
            "label": "s_requestId",
            "offset": 0,
            "slot": "5",
            "type": "t_uint256"
          },
          {
            "astId": 218,
            "contract": "contracts/Raffle.sol:Raffle",
            "label": "s_owner",
            "offset": 0,
            "slot": "6",
            "type": "t_address"
          },
          {
            "astId": 220,
            "contract": "contracts/Raffle.sol:Raffle",
            "label": "s_lastTimeStamp",
            "offset": 0,
            "slot": "7",
            "type": "t_uint256"
          },
          {
            "astId": 222,
            "contract": "contracts/Raffle.sol:Raffle",
            "label": "interval",
            "offset": 0,
            "slot": "8",
            "type": "t_uint256"
          },
          {
            "astId": 242,
            "contract": "contracts/Raffle.sol:Raffle",
            "label": "players",
            "offset": 0,
            "slot": "9",
            "type": "t_mapping(t_address,t_uint256)"
          },
          {
            "astId": 246,
            "contract": "contracts/Raffle.sol:Raffle",
            "label": "players_array",
            "offset": 0,
            "slot": "10",
            "type": "t_array(t_struct(Lottery)238_storage)dyn_storage"
          },
          {
            "astId": 249,
            "contract": "contracts/Raffle.sol:Raffle",
            "label": "winners",
            "offset": 0,
            "slot": "11",
            "type": "t_array(t_address)dyn_storage"
          },
          {
            "astId": 251,
            "contract": "contracts/Raffle.sol:Raffle",
            "label": "time_batch",
            "offset": 0,
            "slot": "12",
            "type": "t_uint256"
          },
          {
            "astId": 254,
            "contract": "contracts/Raffle.sol:Raffle",
            "label": "State",
            "offset": 0,
            "slot": "13",
            "type": "t_enum(raffle_State)225"
          },
          {
            "astId": 256,
            "contract": "contracts/Raffle.sol:Raffle",
            "label": "ticket_winner",
            "offset": 0,
            "slot": "14",
            "type": "t_uint256"
          }
        ],
        "types": {
          "t_address": {
            "encoding": "inplace",
            "label": "address",
            "numberOfBytes": "20"
          },
          "t_array(t_address)dyn_storage": {
            "base": "t_address",
            "encoding": "dynamic_array",
            "label": "address[]",
            "numberOfBytes": "32"
          },
          "t_array(t_struct(Lottery)238_storage)dyn_storage": {
            "base": "t_struct(Lottery)238_storage",
            "encoding": "dynamic_array",
            "label": "struct Raffle.Lottery[]",
            "numberOfBytes": "32"
          },
          "t_array(t_uint256)dyn_storage": {
            "base": "t_uint256",
            "encoding": "dynamic_array",
            "label": "uint256[]",
            "numberOfBytes": "32"
          },
          "t_bytes32": {
            "encoding": "inplace",
            "label": "bytes32",
            "numberOfBytes": "32"
          },
          "t_contract(VRFCoordinatorV2Interface)165": {
            "encoding": "inplace",
            "label": "contract VRFCoordinatorV2Interface",
            "numberOfBytes": "20"
          },
          "t_enum(raffle_State)225": {
            "encoding": "inplace",
            "label": "enum Raffle.raffle_State",
            "numberOfBytes": "1"
          },
          "t_mapping(t_address,t_uint256)": {
            "encoding": "mapping",
            "key": "t_address",
            "label": "mapping(address => uint256)",
            "numberOfBytes": "32",
            "value": "t_uint256"
          },
          "t_struct(Lottery)238_storage": {
            "encoding": "inplace",
            "label": "struct Raffle.Lottery",
            "members": [
              {
                "astId": 235,
                "contract": "contracts/Raffle.sol:Raffle",
                "label": "address_person",
                "offset": 0,
                "slot": "0",
                "type": "t_address"
              },
              {
                "astId": 237,
                "contract": "contracts/Raffle.sol:Raffle",
                "label": "number_of",
                "offset": 0,
                "slot": "1",
                "type": "t_uint256"
              }
            ],
            "numberOfBytes": "64"
          },
          "t_uint256": {
            "encoding": "inplace",
            "label": "uint256",
            "numberOfBytes": "32"
          },
          "t_uint32": {
            "encoding": "inplace",
            "label": "uint32",
            "numberOfBytes": "4"
          },
          "t_uint64": {
            "encoding": "inplace",
            "label": "uint64",
            "numberOfBytes": "8"
          }
        }
      },
      "userdoc": {
        "kind": "user",
        "methods": {},
        "version": 1
      }
    }
  }
}