{
  "_format": "hh-sol-artifact-1",
  "contractName": "Raffle",
  "sourceName": "contracts/Raffle.sol",
  "abi": [
    {
      "inputs": [
        {
          "internalType": "uint32",
          "name": "num_winners",
          "type": "uint32"
        },
        {
          "internalType": "address",
          "name": "_vrfCoordinator",
          "type": "address"
        },
        {
          "internalType": "bytes32",
          "name": "_keyHash",
          "type": "bytes32"
        },
        {
          "internalType": "uint64",
          "name": "_s_subscriptionId",
          "type": "uint64"
        },
        {
          "internalType": "uint256",
          "name": "_interval",
          "type": "uint256"
        }
      ],
      "stateMutability": "nonpayable",
      "type": "constructor"
    },
    {
      "inputs": [],
      "name": "JUST_TwO_NUMBER",
      "type": "error"
    },
    {
      "inputs": [],
      "name": "NO_ENOUGHT_MONEY",
      "type": "error"
    },
    {
      "inputs": [],
      "name": "NO_OPEN_STATE",
      "type": "error"
    },
    {
      "inputs": [],
      "name": "NO_TIME",
      "type": "error"
    },
    {
      "inputs": [
        {
          "internalType": "address",
          "name": "have",
          "type": "address"
        },
        {
          "internalType": "address",
          "name": "want",
          "type": "address"
        }
      ],
      "name": "OnlyCoordinatorCanFulfill",
      "type": "error"
    },
    {
      "anonymous": false,
      "inputs": [
        {
          "indexed": false,
          "internalType": "uint256",
          "name": "No_winner",
          "type": "uint256"
        }
      ],
      "name": "No_winner",
      "type": "event"
    },
    {
      "anonymous": false,
      "inputs": [
        {
          "indexed": true,
          "internalType": "uint256",
          "name": "requestId",
          "type": "uint256"
        }
      ],
      "name": "RequestedRaffleWinner",
      "type": "event"
    },
    {
      "anonymous": false,
      "inputs": [
        {
          "indexed": false,
          "internalType": "address",
          "name": "buyer",
          "type": "address"
        }
      ],
      "name": "new_ticket",
      "type": "event"
    },
    {
      "anonymous": false,
      "inputs": [
        {
          "indexed": false,
          "internalType": "address",
          "name": "winner",
          "type": "address"
        }
      ],
      "name": "new_winner",
      "type": "event"
    },
    {
      "anonymous": false,
      "inputs": [
        {
          "indexed": false,
          "internalType": "bool",
          "name": "start",
          "type": "bool"
        }
      ],
      "name": "staring",
      "type": "event"
    },
    {
      "inputs": [
        {
          "internalType": "uint256",
          "name": "_number",
          "type": "uint256"
        }
      ],
      "name": "Buy_lottery",
      "outputs": [],
      "stateMutability": "payable",
      "type": "function"
    },
    {
      "inputs": [],
      "name": "State",
      "outputs": [
        {
          "internalType": "enum Raffle.raffle_State",
          "name": "",
          "type": "uint8"
        }
      ],
      "stateMutability": "view",
      "type": "function"
    },
    {
      "inputs": [
        {
          "internalType": "uint256",
          "name": "",
          "type": "uint256"
        }
      ],
      "name": "address_w",
      "outputs": [
        {
          "internalType": "address",
          "name": "",
          "type": "address"
        }
      ],
      "stateMutability": "view",
      "type": "function"
    },
    {
      "inputs": [
        {
          "internalType": "bytes",
          "name": "",
          "type": "bytes"
        }
      ],
      "name": "checkUpkeep",
      "outputs": [
        {
          "internalType": "bool",
          "name": "upkeepNeeded",
          "type": "bool"
        },
        {
          "internalType": "bytes",
          "name": "",
          "type": "bytes"
        }
      ],
      "stateMutability": "view",
      "type": "function"
    },
    {
      "inputs": [],
      "name": "get_address_winner",
      "outputs": [
        {
          "internalType": "address",
          "name": "",
          "type": "address"
        }
      ],
      "stateMutability": "view",
      "type": "function"
    },
    {
      "inputs": [],
      "name": "get_interval",
      "outputs": [
        {
          "internalType": "uint256",
          "name": "",
          "type": "uint256"
        }
      ],
      "stateMutability": "view",
      "type": "function"
    },
    {
      "inputs": [],
      "name": "get_last_number_winner",
      "outputs": [
        {
          "internalType": "uint256",
          "name": "",
          "type": "uint256"
        }
      ],
      "stateMutability": "view",
      "type": "function"
    },
    {
      "inputs": [
        {
          "internalType": "uint256",
          "name": "index",
          "type": "uint256"
        }
      ],
      "name": "get_num",
      "outputs": [
        {
          "internalType": "uint256",
          "name": "",
          "type": "uint256"
        }
      ],
      "stateMutability": "view",
      "type": "function"
    },
    {
      "inputs": [],
      "name": "get_num_winners",
      "outputs": [
        {
          "internalType": "uint256",
          "name": "",
          "type": "uint256"
        }
      ],
      "stateMutability": "view",
      "type": "function"
    },
    {
      "inputs": [],
      "name": "get_state",
      "outputs": [
        {
          "internalType": "enum Raffle.raffle_State",
          "name": "",
          "type": "uint8"
        }
      ],
      "stateMutability": "view",
      "type": "function"
    },
    {
      "inputs": [
        {
          "internalType": "uint256",
          "name": "index",
          "type": "uint256"
        }
      ],
      "name": "get_wallet",
      "outputs": [
        {
          "internalType": "address",
          "name": "",
          "type": "address"
        }
      ],
      "stateMutability": "view",
      "type": "function"
    },
    {
      "inputs": [],
      "name": "interval",
      "outputs": [
        {
          "internalType": "uint256",
          "name": "",
          "type": "uint256"
        }
      ],
      "stateMutability": "view",
      "type": "function"
    },
    {
      "inputs": [],
      "name": "number",
      "outputs": [
        {
          "internalType": "uint256",
          "name": "",
          "type": "uint256"
        }
      ],
      "stateMutability": "view",
      "type": "function"
    },
    {
      "inputs": [
        {
          "internalType": "bytes",
          "name": "",
          "type": "bytes"
        }
      ],
      "name": "performUpkeep",
      "outputs": [],
      "stateMutability": "nonpayable",
      "type": "function"
    },
    {
      "inputs": [
        {
          "internalType": "address",
          "name": "",
          "type": "address"
        }
      ],
      "name": "players",
      "outputs": [
        {
          "internalType": "uint256",
          "name": "",
          "type": "uint256"
        }
      ],
      "stateMutability": "view",
      "type": "function"
    },
    {
      "inputs": [
        {
          "internalType": "uint256",
          "name": "",
          "type": "uint256"
        }
      ],
      "name": "players_array",
      "outputs": [
        {
          "internalType": "address",
          "name": "address_person",
          "type": "address"
        },
        {
          "internalType": "uint256",
          "name": "number_of",
          "type": "uint256"
        }
      ],
      "stateMutability": "view",
      "type": "function"
    },
    {
      "inputs": [
        {
          "internalType": "uint256",
          "name": "requestId",
          "type": "uint256"
        },
        {
          "internalType": "uint256[]",
          "name": "randomWords",
          "type": "uint256[]"
        }
      ],
      "name": "rawFulfillRandomWords",
      "outputs": [],
      "stateMutability": "nonpayable",
      "type": "function"
    },
    {
      "inputs": [
        {
          "internalType": "uint256",
          "name": "",
          "type": "uint256"
        }
      ],
      "name": "s_randomWords",
      "outputs": [
        {
          "internalType": "uint256",
          "name": "",
          "type": "uint256"
        }
      ],
      "stateMutability": "view",
      "type": "function"
    },
    {
      "inputs": [],
      "name": "s_requestId",
      "outputs": [
        {
          "internalType": "uint256",
          "name": "",
          "type": "uint256"
        }
      ],
      "stateMutability": "view",
      "type": "function"
    },
    {
      "inputs": [],
      "name": "ticket_winner",
      "outputs": [
        {
          "internalType": "uint256",
          "name": "",
          "type": "uint256"
        }
      ],
      "stateMutability": "view",
      "type": "function"
    },
    {
      "inputs": [
        {
          "internalType": "uint256",
          "name": "",
          "type": "uint256"
        }
      ],
      "name": "winners",
      "outputs": [
        {
          "internalType": "address",
          "name": "address_person",
          "type": "address"
        },
        {
          "internalType": "uint256",
          "name": "number_of",
          "type": "uint256"
        }
      ],
      "stateMutability": "view",
      "type": "function"
    }
  ],
  "bytecode": "0x60c06040523480156200001157600080fd5b5060405162001d0338038062001d03833981810160405281019062000037919062000342565b838073ffffffffffffffffffffffffffffffffffffffff1660808173ffffffffffffffffffffffffffffffffffffffff1681525050506000600c60006101000a81548160ff02191690836001811115620000965762000095620003ca565b5b021790555084600260006101000a81548163ffffffff021916908363ffffffff16021790555083600060086101000a81548173ffffffffffffffffffffffffffffffffffffffff021916908373ffffffffffffffffffffffffffffffffffffffff1602179055508260018190555033600560006101000a81548173ffffffffffffffffffffffffffffffffffffffff021916908373ffffffffffffffffffffffffffffffffffffffff160217905550816000806101000a81548167ffffffffffffffff021916908367ffffffffffffffff160217905550600060089054906101000a900473ffffffffffffffffffffffffffffffffffffffff1673ffffffffffffffffffffffffffffffffffffffff1660a08173ffffffffffffffffffffffffffffffffffffffff168152505042600681905550806007819055505050505050620003f9565b600080fd5b600063ffffffff82169050919050565b620001fc81620001e1565b81146200020857600080fd5b50565b6000815190506200021c81620001f1565b92915050565b600073ffffffffffffffffffffffffffffffffffffffff82169050919050565b60006200024f8262000222565b9050919050565b620002618162000242565b81146200026d57600080fd5b50565b600081519050620002818162000256565b92915050565b6000819050919050565b6200029c8162000287565b8114620002a857600080fd5b50565b600081519050620002bc8162000291565b92915050565b600067ffffffffffffffff82169050919050565b620002e181620002c2565b8114620002ed57600080fd5b50565b6000815190506200030181620002d6565b92915050565b6000819050919050565b6200031c8162000307565b81146200032857600080fd5b50565b6000815190506200033c8162000311565b92915050565b600080600080600060a08688031215620003615762000360620001dc565b5b600062000371888289016200020b565b9550506020620003848882890162000270565b94505060406200039788828901620002ab565b9350506060620003aa88828901620002f0565b9250506080620003bd888289016200032b565b9150509295509295909350565b7f4e487b7100000000000000000000000000000000000000000000000000000000600052602160045260246000fd5b60805160a0516118dd620004266000396000610652015260008181610538015261058c01526118dd6000f3fe60806040526004361061012a5760003560e01c8063947a36fb116100ab578063e6e5c4901161006f578063e6e5c49014610422578063e89e106a1461044d578063f1b6dccd14610478578063f38bc334146104a3578063f42c4ec8146104ce578063f6eaffc8146104f95761012a565b8063947a36fb14610323578063a2fb11751461034e578063da89375c1461038c578063dcbd5416146103c9578063e2eb41ff146103e55761012a565b806376febb7e116100f257806376febb7e1461022757806381866600146102645780638381f58a1461028f57806386b301ad146102ba57806394743539146102e55761012a565b80631fe543e31461012f5780632d668845146101585780634585e33b146101835780636e04ff0d146101ac5780637227d097146101ea575b600080fd5b34801561013b57600080fd5b5061015660048036038101906101519190611105565b610536565b005b34801561016457600080fd5b5061016d6105f6565b60405161017a9190611170565b60405180910390f35b34801561018f57600080fd5b506101aa60048036038101906101a591906111e6565b6105fc565b005b3480156101b857600080fd5b506101d360048036038101906101ce91906112e8565b610794565b6040516101e19291906113d4565b60405180910390f35b3480156101f657600080fd5b50610211600480360381019061020c9190611404565b6107fb565b60405161021e9190611472565b60405180910390f35b34801561023357600080fd5b5061024e60048036038101906102499190611404565b61083a565b60405161025b9190611170565b60405180910390f35b34801561027057600080fd5b50610279610869565b6040516102869190611472565b60405180910390f35b34801561029b57600080fd5b506102a46108b1565b6040516102b19190611170565b60405180910390f35b3480156102c657600080fd5b506102cf6108b7565b6040516102dc9190611504565b60405180910390f35b3480156102f157600080fd5b5061030c60048036038101906103079190611404565b6108ce565b60405161031a92919061151f565b60405180910390f35b34801561032f57600080fd5b50610338610922565b6040516103459190611170565b60405180910390f35b34801561035a57600080fd5b5061037560048036038101906103709190611404565b610928565b60405161038392919061151f565b60405180910390f35b34801561039857600080fd5b506103b360048036038101906103ae9190611404565b61097c565b6040516103c09190611472565b60405180910390f35b6103e360048036038101906103de9190611404565b6109cb565b005b3480156103f157600080fd5b5061040c60048036038101906104079190611574565b610c14565b6040516104199190611170565b60405180910390f35b34801561042e57600080fd5b50610437610c2c565b6040516104449190611170565b60405180910390f35b34801561045957600080fd5b50610462610c4c565b60405161046f9190611170565b60405180910390f35b34801561048457600080fd5b5061048d610c52565b60405161049a9190611504565b60405180910390f35b3480156104af57600080fd5b506104b8610c65565b6040516104c59190611170565b60405180910390f35b3480156104da57600080fd5b506104e3610c6f565b6040516104f09190611170565b60405180910390f35b34801561050557600080fd5b50610520600480360381019061051b9190611404565b610c79565b60405161052d9190611170565b60405180910390f35b7f000000000000000000000000000000000000000000000000000000000000000073ffffffffffffffffffffffffffffffffffffffff163373ffffffffffffffffffffffffffffffffffffffff16146105e857337f00000000000000000000000000000000000000000000000000000000000000006040517f1cf993f40000000000000000000000000000000000000000000000000000000081526004016105df9291906115a1565b60405180910390fd5b6105f28282610c9d565b5050565b600e5481565b600061061660405180602001604052806000815250610794565b50905080610650576040517fdbd2220a00000000000000000000000000000000000000000000000000000000815260040160405180910390fd5b7f000000000000000000000000000000000000000000000000000000000000000073ffffffffffffffffffffffffffffffffffffffff16635d3b1d3060015460008054906101000a900467ffffffffffffffff166003620186a0600260009054906101000a900463ffffffff166040518663ffffffff1660e01b81526004016106dd959493929190611642565b602060405180830381600087803b1580156106f757600080fd5b505af115801561070b573d6000803e3d6000fd5b505050506040513d601f19601f8201168201806040525081019061072f91906116aa565b6004819055506001600c60006101000a81548160ff0219169083600181111561075b5761075a61148d565b5b02179055506004547fcd6e45c8998311cab7e9d4385596cac867e20a0587194b954fa3a731c93ce78b60405160405180910390a2505050565b6000606060008060018111156107ad576107ac61148d565b5b600c60009054906101000a900460ff1660018111156107cf576107ce61148d565b5b1490506000600754600654426107e59190611706565b1190508180156107f25750805b93505050915091565b600d818154811061080b57600080fd5b906000526020600020016000915054906101000a900473ffffffffffffffffffffffffffffffffffffffff1681565b6000600982815481106108505761084f61173a565b5b9060005260206000209060020201600101549050919050565b6000600d600f54815481106108815761088061173a565b5b9060005260206000200160009054906101000a900473ffffffffffffffffffffffffffffffffffffffff16905090565b600f5481565b6000600c60009054906101000a900460ff16905090565b600981815481106108de57600080fd5b90600052602060002090600202016000915090508060000160009054906101000a900473ffffffffffffffffffffffffffffffffffffffff16908060010154905082565b60075481565b600a818154811061093857600080fd5b90600052602060002090600202016000915090508060000160009054906101000a900473ffffffffffffffffffffffffffffffffffffffff16908060010154905082565b6000600982815481106109925761099161173a565b5b906000526020600020906002020160000160009054906101000a900473ffffffffffffffffffffffffffffffffffffffff169050919050565b60018111610a05576040517f20cc5f7700000000000000000000000000000000000000000000000000000000815260040160405180910390fd5b60638110610a3f576040517f20cc5f7700000000000000000000000000000000000000000000000000000000815260040160405180910390fd5b662386f26fc10000341015610a80576040517f6a6df4c900000000000000000000000000000000000000000000000000000000815260040160405180910390fd5b600c60009054906101000a900460ff166001811115610aa257610aa161148d565b5b60006001811115610ab657610ab561148d565b5b14610aed576040517fc9bcc82e00000000000000000000000000000000000000000000000000000000815260040160405180910390fd5b600960405180604001604052803373ffffffffffffffffffffffffffffffffffffffff16815260200183815250908060018154018082558091505060019003906000526020600020906002020160009091909190915060008201518160000160006101000a81548173ffffffffffffffffffffffffffffffffffffffff021916908373ffffffffffffffffffffffffffffffffffffffff16021790555060208201518160010155505080600860003373ffffffffffffffffffffffffffffffffffffffff1673ffffffffffffffffffffffffffffffffffffffff168152602001908152602001600020819055507f87bbcb76ca2a0acf0732f7cddafc17b54b6efda4a5d6682f1f677c9bfb8d990f33604051610c099190611472565b60405180910390a150565b60086020528060005260406000206000915090505481565b6000600260009054906101000a900463ffffffff1663ffffffff16905090565b60045481565b600c60009054906101000a900460ff1681565b6000600e54905090565b6000600754905090565b60038181548110610c8957600080fd5b906000526020600020016000915090505481565b7f6e34ee6adb04e13a1e98c4985b61a0c4fa4098c27ecf3b91ae51a941edb71db26001604051610ccd9190611769565b60405180910390a16000600c60006101000a81548160ff02191690836001811115610cfb57610cfa61148d565b5b02179055508060039080519060200190610d16929190610ef8565b5060098054905081600081518110610d3157610d3061173a565b5b6020026020010151610d4391906117b3565b600e819055506000670de0b6b3a7640000905060006009600e5481548110610d6e57610d6d61173a565b5b906000526020600020906002020160000160009054906101000a900473ffffffffffffffffffffffffffffffffffffffff1673ffffffffffffffffffffffffffffffffffffffff1682604051610dc390611815565b60006040518083038185875af1925050503d8060008114610e00576040519150601f19603f3d011682016040523d82523d6000602084013e610e05565b606091505b5050905080610e49576040517f08c379a0000000000000000000000000000000000000000000000000000000008152600401610e4090611887565b60405180910390fd5b7f2fb5676af721f279a52b33d9ae31f5cc54234b3d4b5495e3d34e64acffb326cb6009600e5481548110610e8057610e7f61173a565b5b906000526020600020906002020160000160009054906101000a900473ffffffffffffffffffffffffffffffffffffffff16604051610ebf9190611472565b60405180910390a16000600c60006101000a81548160ff02191690836001811115610eed57610eec61148d565b5b021790555050505050565b828054828255906000526020600020908101928215610f34579160200282015b82811115610f33578251825591602001919060010190610f18565b5b509050610f419190610f45565b5090565b5b80821115610f5e576000816000905550600101610f46565b5090565b6000604051905090565b600080fd5b600080fd5b6000819050919050565b610f8981610f76565b8114610f9457600080fd5b50565b600081359050610fa681610f80565b92915050565b600080fd5b6000601f19601f8301169050919050565b7f4e487b7100000000000000000000000000000000000000000000000000000000600052604160045260246000fd5b610ffa82610fb1565b810181811067ffffffffffffffff8211171561101957611018610fc2565b5b80604052505050565b600061102c610f62565b90506110388282610ff1565b919050565b600067ffffffffffffffff82111561105857611057610fc2565b5b602082029050602081019050919050565b600080fd5b600061108161107c8461103d565b611022565b905080838252602082019050602084028301858111156110a4576110a3611069565b5b835b818110156110cd57806110b98882610f97565b8452602084019350506020810190506110a6565b5050509392505050565b600082601f8301126110ec576110eb610fac565b5b81356110fc84826020860161106e565b91505092915050565b6000806040838503121561111c5761111b610f6c565b5b600061112a85828601610f97565b925050602083013567ffffffffffffffff81111561114b5761114a610f71565b5b611157858286016110d7565b9150509250929050565b61116a81610f76565b82525050565b60006020820190506111856000830184611161565b92915050565b600080fd5b60008083601f8401126111a6576111a5610fac565b5b8235905067ffffffffffffffff8111156111c3576111c261118b565b5b6020830191508360018202830111156111df576111de611069565b5b9250929050565b600080602083850312156111fd576111fc610f6c565b5b600083013567ffffffffffffffff81111561121b5761121a610f71565b5b61122785828601611190565b92509250509250929050565b600080fd5b600067ffffffffffffffff82111561125357611252610fc2565b5b61125c82610fb1565b9050602081019050919050565b82818337600083830152505050565b600061128b61128684611238565b611022565b9050828152602081018484840111156112a7576112a6611233565b5b6112b2848285611269565b509392505050565b600082601f8301126112cf576112ce610fac565b5b81356112df848260208601611278565b91505092915050565b6000602082840312156112fe576112fd610f6c565b5b600082013567ffffffffffffffff81111561131c5761131b610f71565b5b611328848285016112ba565b91505092915050565b60008115159050919050565b61134681611331565b82525050565b600081519050919050565b600082825260208201905092915050565b60005b8381101561138657808201518184015260208101905061136b565b83811115611395576000848401525b50505050565b60006113a68261134c565b6113b08185611357565b93506113c0818560208601611368565b6113c981610fb1565b840191505092915050565b60006040820190506113e9600083018561133d565b81810360208301526113fb818461139b565b90509392505050565b60006020828403121561141a57611419610f6c565b5b600061142884828501610f97565b91505092915050565b600073ffffffffffffffffffffffffffffffffffffffff82169050919050565b600061145c82611431565b9050919050565b61146c81611451565b82525050565b60006020820190506114876000830184611463565b92915050565b7f4e487b7100000000000000000000000000000000000000000000000000000000600052602160045260246000fd5b600281106114cd576114cc61148d565b5b50565b60008190506114de826114bc565b919050565b60006114ee826114d0565b9050919050565b6114fe816114e3565b82525050565b600060208201905061151960008301846114f5565b92915050565b60006040820190506115346000830185611463565b6115416020830184611161565b9392505050565b61155181611451565b811461155c57600080fd5b50565b60008135905061156e81611548565b92915050565b60006020828403121561158a57611589610f6c565b5b60006115988482850161155f565b91505092915050565b60006040820190506115b66000830185611463565b6115c36020830184611463565b9392505050565b6000819050919050565b6115dd816115ca565b82525050565b600067ffffffffffffffff82169050919050565b611600816115e3565b82525050565b600061ffff82169050919050565b61161d81611606565b82525050565b600063ffffffff82169050919050565b61163c81611623565b82525050565b600060a08201905061165760008301886115d4565b61166460208301876115f7565b6116716040830186611614565b61167e6060830185611633565b61168b6080830184611633565b9695505050505050565b6000815190506116a481610f80565b92915050565b6000602082840312156116c0576116bf610f6c565b5b60006116ce84828501611695565b91505092915050565b7f4e487b7100000000000000000000000000000000000000000000000000000000600052601160045260246000fd5b600061171182610f76565b915061171c83610f76565b92508282101561172f5761172e6116d7565b5b828203905092915050565b7f4e487b7100000000000000000000000000000000000000000000000000000000600052603260045260246000fd5b600060208201905061177e600083018461133d565b92915050565b7f4e487b7100000000000000000000000000000000000000000000000000000000600052601260045260246000fd5b60006117be82610f76565b91506117c983610f76565b9250826117d9576117d8611784565b5b828206905092915050565b600081905092915050565b50565b60006117ff6000836117e4565b915061180a826117ef565b600082019050919050565b6000611820826117f2565b9150819050919050565b600082825260208201905092915050565b7f6574686572206e6f742073656e64000000000000000000000000000000000000600082015250565b6000611871600e8361182a565b915061187c8261183b565b602082019050919050565b600060208201905081810360008301526118a081611864565b905091905056fea2646970667358221220ef7aa833ef282263d15dfed1771108a340bc1aab6cf910b5bacc0cd9724c3c9264736f6c63430008090033",
  "linkReferences": {},
  "deployedLinkReferences": {}
}